:020000040800F2
:1000000070060020CD010008D5010008D7010008C6
:10001000D9010008DB010008DD0100080000000034
:10002000000000000000000000000000DF010008E8
:10003000E101000800000000E3010008A90E00082B
:10004000E7010008E7010008E7010008E7010008F0
:10005000E7010008E7010008E7010008E7010008E0
:10006000E7010008E7010008E7010008E7010008D0
:10007000E7010008E7010008E7010008E7010008C0
:10008000E7010008E7010008E7010008E7010008B0
:10009000E7010008E7010008E7010008E7010008A0
:1000A000E7010008E7010008E7010008E701000890
:1000B000E7010008E7010008E7010008E701000880
:1000C000E7010008E7010008E7010008E701000870
:1000D000E7010008E7010008E7010008E701000860
:1000E000E7010008E7010008E701000800F002F856
:1000F00000F05DF814A696E8000CB244B344DA456B
:1001000001D100F054F8BAE80F000FA696E83000CD
:10011000A5EB040504EB0607AAEB0704A7F101070A
:100120004FEA15154FEA3414A4F10104AC4201D38F
:1001300000F03DF813F0010F18BFFB1A43F0010364
:1001400000F001F8DBE71847F02700001028000056
:10015000103A24BF78C878C1FAD8520724BF30C8F3
:1001600030C144BF04680C60704700007047000055
:100170000023002400250026103A28BF78C1FBD8B0
:10018000520728BF30C148BF0B607047662902F094
:100190008683002070471FB500F010FB040000208C
:1001A000002102F051F8E0601FBD10B510BD00F055
:1001B00005FC1146FFF7EFFF01F0ACFB00F023FC5C
:1001C00003B4FFF7F2FF03BC00F066FC0948804768
:1001D00009480047FEE7FEE7FEE7FEE7FEE7FEE729
:1001E000FEE7FEE7FEE7FEE704480549054A064B41
:1001F00070470000CD0E0008ED00000870000020E0
:100200007006002070020020700200200FB41CB5A0
:100210000C0007AA009007D04142A14202D320441B
:10022000401E01E04FF0FF30074B7B4469460190D0
:10023000069800F0A8FA0020002C01D00099087060
:100240001CBC5DF814FB00007F0500002DE9F047A1
:100250004FF0000A89460446C0F820A02046E16815
:100260008847002876D0252806D0D4E90121904778
:10027000206A401C2062F1E7E1682046002588479B
:10028000C4F81CA006460027C4F818A02A2E09D0DE
:10029000304601F0D1FF38B304EB8708303EC8F890
:1002A000186019E059F8041B204604EB870291619D
:1002B000E1688847012F064618D1E069002820DA56
:1002C00025F020051DE0D8F8180000EB800006EBB3
:1002D00040003038C8F818002046E16888470646D4
:1002E00001F0AAFF0028EED1012F0AD02E2E08D14E
:1002F0002046E16888477F1C0646022F45F020050E
:10030000C4DBA069002803DA404245F00105A06182
:10031000E80701D025F01005B6B1A6F14100192873
:1003200002D8203645F400654A463146204625600D
:100330004D46FFF72BFF58B1012806D0ED1D25F0E3
:10034000070000F1080989E704E005F1040985E7E1
:1003500030468AE7206ABDE8F087704770477047EB
:100360002DE9FF4F0C461E464FF0FF378BB0D2E908
:100370000001DDF860800A908A46C1F30A5505B98C
:100380003D46002108464FF00000BAF1000F00F48E
:10039000400005DA00EB80004FF4400101EA500014
:1003A0004FEA9059B9F1010F00DDB9460A9850EAB9
:1003B0004A000ED044F61050A5F2FF3545432F14E5
:1003C000B8F1000F1ED07542291E1EDDC9F10002D2
:1003D0001CE0B8F1010F4FF0000001D0302103E024
:1003E000F24305E02154401CB042FBDB30460022C2
:1003F000002121540B99C1F80880C1E900200FB0F9
:10040000BDE8F08FBD1B6D1CDEE74A4600DA69428D
:1004100006A800F05DFA06AB93E8070003AB83E89B
:10042000070050460A9901F02AFB8DE80700A0F565
:1004300000501F3800900398002D0ADD42F21F0182
:100440004A460844002303A90390684601F094FD3E
:1004500009E0A0F500504A461F38002303A9039085
:10046000684601F09EFD8DE807000004000C03D0F3
:100470004FF0FF30410800E01046B8F1000F03D004
:100480000022009215461EE0751E05D400F09AF970
:10049000303262556D1EF9D5B3460122084302D0B1
:1004A00000227F1C04E02078302801D100227F1E2A
:1004B000002A099784D01DE0112D07DA00F082F997
:1004C000303262556D1C50EA0102F5D1084302D06A
:1004D0000098C8B10EE00021681E05E0235C625C54
:1004E00063542254401E491C8142F7DBAB46A81BD3
:1004F000401E0990002004F80B000B98099AC0F8E0
:100500000880C0E9002B7AE711264FF0000857E772
:100510002DE9F04F88460446D21D22F0070191B024
:10052000D1E90001CDE90A0101F072FE02460B9803
:10053000C00F01D02D2007E02068810701D52B20B6
:1005400002E0202101EAC000032A099001D0072A15
:1005500005DB03464146204600F07AF90BE120789E
:10056000800601D5E06900E00620B8F1650F8146FC
:1005700006D0B8F1660F18D0B8F1670F70D131E02E
:100580000020B9F1110F009001DB112301E009F106
:1005900001030AAA01A90CA8FFF7E2FEDDE90C702D
:1005A000002609F10105834647E001204B460090F3
:1005B0004FF000470AAA01A90CA8FFF7D1FEDDE918
:1005C0000DB00C995D46002610B909F101000D1817
:1005D000B9EB050003D4C0F1FF3609F10105A5EB25
:1005E00009002BE0B9F1010F01DA4FF001090020F9
:1005F000B9F1110F0090484601DD112300E00346D8
:100600000AAA01A90CA8FFF7ABFEDDE90C704D4664
:1006100000268346207800070AD4AB4500DA5D4601
:1006200001A8012D04DD411911F8011C302907D062
:100630004F4502DA17F1040F04DA012082460FE079
:100640006D1EEEE7002F02DCED1B3E4403E0781C3C
:10065000A84200DD7D1CB81B00F1010A4FF00047E5
:100660002078000703D4AA4501DB4FF0FF3A0021B0
:10067000B7F1004F0DF143088DF8431024D002204C
:100680002B23002F01DA7F422D230A21021EA0F125
:10069000010000DC5FB197FBF1FC97FBF1F201FB7D
:1006A0001C7C17460CF1300C08F801CDEEE7A8F1E0
:1006B000010003702188090501D5452100E065216D
:1006C000A0F1010800F8011C09980FA9A1EB080787
:1006D000FF1D00B10120411901EBEA70A169384406
:1006E000081A401EA0612078C00602D42046AFF34D
:1006F0000080099828B1D4E901219047206A401C64
:1007000020622078C00622D52046AFF300801EE08C
:10071000002E04DBB34502DD01A8805D00E030203F
:10072000D4E901219047206A401C2062761CAAF17E
:1007300001005FEA000A0AD100F040F8C0680168D1
:10074000405CD4E901219047206A401C2062281EA9
:10075000A5F10105DCDC07E0D4E9012118F8010B63
:100760009047206A401C2062381EA7F10107F3DC85
:100770002046AFF30080032011B041E601694A1C16
:1007800002610878704700B58FB0CDE901310021D2
:10079000059105497944CDE9031011466846FFF7F4
:1007A00055FD0FB000BD0000E5FFFFFFD1E90023BC
:1007B0009A4202D2531C0B60107070470048704779
:1007C0002800002030B5B0F10A0271F100034FEAB1
:1007D000900E4EEA817EB0EB0E0061EB91014FEA84
:1007E000101E4EEA017E10EB0E0041EB11114FEA94
:1007F000102E4EEA016E10EB0E0041EB11214FEA74
:10080000104E4EEA014E10EB0E0041EB1141401824
:1008100041F100014FEAD00040EA41704FEAD101B6
:100820004FEA810444EA907410EB800544EB010424
:100830006D1944EB0404521BA3414FF0000348BF61
:100840000A3200D530BD401C41F1000130BD00002E
:100850002DE9F0411F46044603260168072A01F4EA
:10086000006004DB08B116A505E016A503E008B199
:1008700015A500E015A521F010002060A069C01E9C
:10088000A0610FB1401EA0612046AFF300804FB1C0
:10089000D4E9012138469047206A401C2062C01CE0
:1008A000206206E0206AFAE7D4E9012115F8010B7D
:1008B0009047761EF8D22046AFF30080BDE8F08165
:1008C0004E414E006E616E00494E4600696E6600F4
:1008D0002DE9F047814616468AB0354878440DC860
:1008E0008DE80D0032487844801C03AC0DC884E8C4
:1008F0000D0041F69B300844372190FBF1F290FB4C
:10090000F1F5A5F1800501FB12041B3C02D5644200
:10091000012000E00020DFF898A080460027FA447C
:10092000AAF1BE0A0EE0E0070AD03246684607EB9D
:10093000470101230AEB810101F033FB8DE8070039
:1009400064107F1C002CEED1194F7F44AE3F19E09C
:10095000E80715D007EB04100DF1180A90E80E0017
:100960008AE80E00C068F04201D19819089032461A
:10097000012306A903A801F014FB03AB83E80700D9
:100980006D10641C002DE3D14FF00103324669461F
:10099000B8F1000F03A802D001F0EEFA01E001F077
:1009A00000FBC9E90001C9F808200AB0BDE8F087DA
:1009B0004020000000487047080000207546FFF7FF
:1009C000F9FFAE4605006946534620F0070085460C
:1009D00018B020B5FFF708FCBDE820404FF0000636
:1009E0004FF000074FF000084FF0000BAC46ACE8AA
:1009F000C009ACE8C009ACE8C009ACE8C00921F006
:100A000007018D46704710B50446AFF300802046BD
:100A1000BDE81040FFF7D4BB4FF0013C50F8042B69
:100A200051F8043B9A4221D1A2EB0C03934313EA01
:100A3000CC1317D150F8042B51F8043B9A4215D12E
:100A4000A2EB0C03934313EACC130BD150F8042B05
:100A500051F8043B9A4209D1A2EB0C03934313EAE9
:100A6000CC13DBD04FF00000704700BFD01A01BAA2
:100A7000B1FA81F101F0180122FA01F0CB40DBB2AA
:100A8000C0B2C01AC1F120012CFA01F3D11A91436E
:100A900011EAC311E6D1704701491820ABBEFEE749
:100AA000260002007047000010B52D21044600F01A
:100AB000F5FB3DA300200121002200F009FF4FF4C7
:100AC0007A7000F08BFA0020012100F0A5FC3BA316
:100AD00000200121002200F0FBFE4FF47A7000F0AC
:100AE0007DFA0020012100F097FC204600F056FC22
:100AF0002046A621002200F073FB20462D2100F0A5
:100B0000A7FB2046082100F0A3FB204600F06AFC6A
:100B10002FA300200121002200F0DAFE4FF47A70AA
:100B200000F05CFA0020012100F076FC204600F085
:100B300035FC2046A621002200F052FB2046312140
:100B400000F086FB2046082100F082FB204600F0E2
:100B500049FC4FF47A7000F041FA22A300200121F1
:100B6000002200F0B5FE4FF47A7000F037FA002052
:100B7000012100F051FC204600F010FC2046A62187
:100B8000002200F02DFB20462C2100F061FB2046C6
:100B90000A2100F05DFB204600F024FC4FF47A703F
:100BA000BDE8104000F01ABA4144584C33343520A7
:100BB000496E6974205374617274000053657474D3
:100BC000696E6720506F776572204374726C000005
:100BD00053657474696E67204461746120466F7256
:100BE0006D61740053657474696E6720446174614B
:100BF00020526174650000002DE9F04F83B0CDE90B
:100C000001238B46074600F0C9FB3846A621002287
:100C100000F0E6FA3846322100F01AFB384600F0C0
:100C2000BDFB3846A621012200F0DAFA3846002141
:100C300000F084FB8246384600F0D4FB384600F0D2
:100C4000ADFB3846A621002200F0CAFA384633210F
:100C500000F0FEFA384600F0A1FB3846A62101223A
:100C600000F0BEFA3846002100F068FB0446384622
:100C700000F0B8FB384600F091FB3846A621002270
:100C800000F0AEFA3846342100F0E2FA384600F0BF
:100C900085FB3846A621012200F0A2FA3846002141
:100CA00000F04CFB0546384600F09CFB384600F04F
:100CB00075FB3846A621002200F092FA384635210D
:100CC00000F0C6FA384600F069FB3846A62101223A
:100CD00000F086FA3846002100F030FB0646384620
:100CE00000F080FB384600F059FB3846A621002270
:100CF00000F076FA3846362100F0AAFA384600F0BD
:100D00004DFB3846A621012200F06AFA3846002140
:100D100000F014FB8046384600F064FB384600F0D3
:100D20003DFB3846A621002200F05AFA384637210A
:100D300000F08EFA384600F031FB3846A621012239
:100D400000F04EFA3846002100F0F8FA81463846A5
:100D500000F048FB4AEA042000B245EA062A48EAC5
:100D6000092701F0B8FA0024C3F670740022234664
:100D700001F0C8FA4AF2053549F60156C3F6922544
:100D8000C4F223062A46334601F0BCFA01F072FA97
:100D9000CBF800000FFA8AF0CDF800B001F09BFA12
:100DA0000022234601F0AEFA2A46334601F0AAFAA1
:100DB00001F060FADDF804A0CAF8000038B201F0D2
:100DC0008AFA0022234601F09DFA2A46334601F0B2
:100DD00099FA01F04FFA029F40F204083860C2F21B
:100DE0000008DDF83090D8F80050D9F800404FF0F6
:100DF0007E50294601F0DEFCDBF8001001F00EFC0D
:100E000006462046294601F009FC314601F0A4FBC4
:100E1000C9F80000DDF834B0D8F80050DBF8004025
:100E20004FF07E50294601F0C5FCDAF8001001F0C1
:100E3000F5FB06462046294601F0F0FB314601F05D
:100E40008BFBCBF80000DDF83890D8F80050D9F8CB
:100E500000404FF07E50294601F0ACFC396801F0AB
:100E6000DDFB06462046294601F0D8FB314601F05D
:100E700073FB009C0C99C9F800002068096801F018
:100E800099FC2060DAF80000DBF8001001F092FC19
:100E9000CAF800003868D9F8001001F08BFC3860FF
:100EA00003B0BDE8F08F000040F26800C2F200001D
:100EB000016842F60002013101600168CEF66B6202
:100EC000914224BF002101607047000082B041F2CE
:100ED0000400C4F2020050F8041C002241F0010199
:100EE00040F8041C0168CFF6FF021140016050F881
:100EF000041C4FF6FF72CFF6F662114040F8041C56
:100F000050F8041C21F4802140F8041C016821F4ED
:100F1000FE0101604FF41F01416000210191009129
:100F200050F8041C41F4803140F8041C50F8041CB3
:100F300001F400310091019901310191009919B931
:100F40000199B1F5A06FF1D150F8041C890354BF89
:100F50000021012100910099012936D142F20001BE
:100F6000C4F202010A6842F010020A600A6822F024
:100F700007020A600A6842F002020A600168016022
:100F800001680160016841F480610160016821F439
:100F90007C110160016841F4E811016050F8041C03
:100FA00041F0807140F8041C50F8041C8901FBD505
:100FB000016821F003010160016841F00201016054
:100FC000016801F00C010829FAD14EF60850CEF262
:100FD00000004FF00061016002B0704740F2680C01
:100FE000C2F2000CDCF800204FF47A73434300BFD8
:100FF000DCF80010891A9942FAD380B141F241021B
:10100000C0F6000203E000BF013808BF7047DCF8FB
:101010000010511AC9087C29F6D800BFFEE77047B6
:1010200040F26801C2F20001096841F24102C0F6D3
:101030000002511A814228BF704700BFFEE700003E
:1010400040F26800C2F2000000687047B0B50328A3
:101050004ED0022824D0012818BFB0BD41F2180C90
:10106000C4F2020CDCF80000072940F00400CCF8C0
:1010700000004FEA810063D840F60004C4F2010486
:101080004FF00F0CD4F800E00CFA00F12EEA010149
:10109000216021688340194340F0020021607EE016
:1010A00041F21800C4F202000568072945F008055E
:1010B00005604FEA81005DD840F60005C4F20105E5
:1010C0000F21D5F80044814024EA0101C5F800143D
:1010D000D5F8001483401943C5F8001440F002000D
:1010E000D5F8001402FA00F00843C5F80004B0BDBA
:1010F00041F21805C4F202052C6840F60440C4F21F
:10110000010044F0100407294FEA81012C604CD8FB
:101110000F25D0F8FC438D4024EA0505C0F8FC53A8
:10112000D0F8FC538B402B43C0F8FC3341F0020154
:10113000D0F8FC3302FA01F11943C0F8FC13B0BD3A
:1011400040F60004C4F20104A0F120054FF00F0C9A
:10115000D4F804E00CFA05F12EEA0101616061683F
:10116000AB40194361601E38616802FA00F0084321
:101170006060B0BD40F60444C4F20104A0F1200157
:101180004FF00F0CD4F800E00CFA01F52EEA05053B
:101190002560256803FA01F1294321601E38216882
:1011A00002FA00F008432060B0BDA1F120054FF025
:1011B0000F0CD0F800E40CFA05F42EEA0404C0F891
:1011C0000044D0F80044AB402343C0F800341E393B
:1011D000D0F8003402FA01F11943C0F80014B0BD90
:1011E00081B0012817D078BB45F21440C4F200004A
:1011F000114320F8041C00BF01888907FCD506E0D4
:101200000188009181880091018889071CD5018897
:101210008907F5D418E045F61400114345F214424D
:10122000C4F20000C4F20002A2F8FC13018889078E
:10123000FCD506E00188009181880091018889072A
:1012400002D501888907F5D4012001B0704700005C
:10125000A0B101281FD145F61400C4F2000000BF60
:1012600002881206FCD545F21442C4F20002A2F82C
:10127000FC1300BF01880906FCD50CE045F21440C0
:10128000C4F2000002881206FCD520F8041C00BF3E
:1012900001880906FCD501207047000010B50C46F6
:1012A00041F21C01C4F2020151F8042C012842F061
:1012B000010241F8042C1DD0E8BB0868032240F469
:1012C00000100860022006210323FFF7BFFE022062
:1012D000072103220323FFF7B9FE45F20040C4F2C1
:1012E0000000082181808483018841F00101018090
:1012F000012010BD0868032240F48000086002202D
:101300000A210323FFF7A2FE02200B21032203235D
:10131000FFF79CFE45F60400C4F20000082101809E
:10132000048345F20040C4F20000B0F8001441F01C
:101330000101A0F80014012010BD0000D8B101285F
:1013400017D145F61400C4F2000000BF028852060F
:10135000FCD545F20042C4F20002B2F81004B2F823
:10136000003400290CBF23F4806143F48061A2F8AB
:101370000014C0B2704745F20042C4F2000200BF40
:10138000908A4006FCD5108A1388C0B2002914BF89
:1013900043F4806123F480611180704701280DD0EF
:1013A000E8B945F20040C4F20000018841F48071C0
:1013B000018000BF818AC907FCD010E045F20040DF
:1013C000C4F20000B0F8001441F48071A0F80014D9
:1013D00045F61400C4F200000188C907FCD00120C2
:1013E0007047000001280AD098B945F20040C4F2C5
:1013F0000000018841F4007101800120704745F22E
:101400000040C4F20000B0F8001441F40071A0F8EC
:101410000014012070470000F0B581B00D4604466D
:10142000FFF7BCFF20464E210022FFF7D9FE2046E1
:101430000821FFF70DFF2046FFF7D4FF0A20FFF732
:10144000EFFD2046FFF7AAFF20464E210022FFF7BE
:10145000C7FE20460C21FFF7FBFE2046FFF7C2FF28
:101460000520FFF7DDFD05F0F007204607F10C062B
:10147000FFF794FF20464E210022FFF7B1FE2046E1
:101480003146FFF7E5FE2046FFF7ACFF0A20FFF7E5
:10149000C7FD204607F10806FFF780FF20464E21D2
:1014A0000022FFF79DFE20463146FFF7D1FE204681
:1014B000FFF798FF1420FFF7B3FD2046FFF76EFFFC
:1014C00020464E210022FFF78BFE20460C21FFF71D
:1014D000BFFE2046FFF786FF0520FFF7A1FD2D0187
:1014E000204605F10C06FFF759FF20464E21002249
:1014F000FFF776FEF1B22046FFF7AAFE2046FFF77F
:1015000071FF0A20FFF78CFD20460835FFF746FFE4
:1015100020464E210022FFF763FEE9B22046FFF786
:1015200097FE204601B0BDE8F040FFF75BBF00002A
:10153000F0B581B00D460446FFF730FF20464E213E
:101540000022FFF74DFE20460921FFF781FE2046CD
:10155000FFF748FF0A20FFF763FD2046FFF71EFF55
:1015600020464E210022FFF73BFE20460D21FFF7CB
:101570006FFE2046FFF736FF0520FFF751FD05F00F
:10158000F007204607F10D06FFF708FF20464E2121
:101590000022FFF725FE20463146FFF759FE204680
:1015A000FFF720FF0A20FFF73BFD204607F1090661
:1015B000FFF7F4FE20464E210022FFF711FE2046E1
:1015C0003146FFF745FE2046FFF70CFF1420FFF7DA
:1015D00027FD2046FFF7E2FE20464E210022FFF7BE
:1015E000FFFD20460D21FFF733FE2046FFF7FAFEF0
:1015F0000520FFF715FD2D01204605F10D06FFF72B
:10160000CDFE20464E210022FFF7EAFDF1B2204632
:10161000FFF71EFE2046FFF7E5FE0A20FFF700FD5C
:1016200020460935FFF7BAFE20464E210022FFF77B
:10163000D7FDE9B22046FFF70BFE204601B0BDE81A
:10164000F040FFF7CFBE000010B52D210446FFF794
:1016500025FE1420FFF7C2FC2046FFF79FFE204620
:101660004E210022FFF7BCFD20460821FFF7F0FDC8
:101670002046FFF7B7FE0A20FFF7D2FC2046FFF70F
:101680008DFE20464E210022FFF7AAFD20460C21A8
:10169000FFF7DEFD2046FFF7A5FE0520FFF7C0FCA3
:1016A0002046FFF77BFE20464E210022FFF798FDE3
:1016B00020463C21FFF7CCFD2046FFF793FE0A2091
:1016C000FFF7AEFC2046FFF769FE20464E210022C0
:1016D000FFF786FD20463821FFF7BAFD2046FFF7C9
:1016E00081FE0120FFF77AFC2046FFF757FE2046D7
:1016F0004E210022FFF774FD20460821FFF7A8FDC8
:101700002046FFF76FFE0A20FFF78AFC2046FFF70E
:1017100045FE20464E210022FFF762FD20460C21A7
:10172000FFF796FD2046FFF75DFE0520FFF778FCEA
:101730002046FFF733FE20464E210022FFF750FDE2
:1017400020463C21FFF784FD2046FFF74BFE0A2090
:10175000FFF766FC2046FFF721FE20464E210022BF
:10176000FFF73EFD20463821FFF772FD2046FFF7C8
:1017700039FE0120FFF732FC2046FFF70FFE20461E
:101780004E210022FFF72CFD20460821FFF760FDC7
:101790002046FFF727FE0A20FFF742FC2046FFF70E
:1017A000FDFD20464E210022FFF71AFD20460C21A8
:1017B000FFF74EFD2046FFF715FE0520FFF730FC32
:1017C0002046FFF7EBFD20464E210022FFF708FDE3
:1017D00020463C21FFF73CFD2046FFF703FE0A2090
:1017E000FFF71EFC2046FFF7D9FD20464E210022C0
:1017F000FFF7F6FC20463821FFF72AFD2046FFF7C9
:10180000F1FD0120FFF7EAFB2046FFF7C7FD204668
:101810004E210022FFF7E4FC20460821FFF718FDC7
:101820002046FFF7DFFD0A20FFF7FAFB2046FFF70F
:10183000B5FD20464E210022FFF7D2FC20460C21A8
:10184000FFF706FD2046FFF7CDFD0520FFF7E8FB7B
:101850002046FFF7A3FD20464E210022FFF7C0FCE3
:1018600020462C21FFF7F4FC2046FFF7BBFD0A20A1
:10187000FFF7D6FB2046FFF791FD20464E210022C0
:10188000FFF7AEFC20462821FFF7E2FC2046FFF7D9
:10189000A9FD20462C21FFF7BFFD0520FFF79EFB89
:1018A00020460C21FFF7B8FD0520FFF797FB2046E7
:1018B0000121FFF7B1FD0520FFF790FB2046022133
:1018C000FFF7AAFD0520BDE81040FFF787BB000029
:1018D000B0B504466FF07F00022908BF6FF03F00EB
:1018E0001044C1B220461D46FFF796FD6420FFF765
:1018F00097FB2878002808BFB0BD013DC1B2204643
:10190000FFF716FE6420FFF78BFBA878013500284F
:10191000F4D1B0BD92B000F093F800200024FFF79E
:1019200093FE00200121FFF777FD3220FFF756FBE1
:101930000120FFF7B9F836A3002001210022FFF7AC
:10194000C7FF4FF47A70FFF749FB00200121FFF732
:1019500063FD3220FFF742FB0694CDE904440DF10C
:1019600044080DF140090DF13C0A0FF2B40B07AC2D
:101970002FA531A600200121FFF74EFD3220FFF7F1
:101980002DFB06A8009005A80190012041464A467B
:10199000534604AF0297FFF72FF9119800F0B0FDFE
:1019A00003460F46204620215A46CDE90037FEF770
:1019B0002DFC0020012100222346FFF789FF10980B
:1019C00000F09EFD03460F46204620212A46CDE921
:1019D0000037FEF71BFC0020022100222346FFF700
:1019E00077FF0F9800F08CFD03460F46204620211C
:1019F0003246CDE90037FEF709FC0020022108221B
:101A00002346FFF765FF4FF4FA70FFF7E7FAB1E7F7
:101A1000496E6974204144584C3334352E2E2E00C3
:101A2000583A20252E3166206D2F733200000000B9
:101A3000593A20252E3166005A3A20252E3166006B
:101A40004EF21000CEF20000002140F2000272B609
:101A50000160C2F2000212684DF68363C4F21B33C8
:101A6000A2FB03239A0C42604EF62352CEF20002F0
:101A7000F023137081600721016062B670475FEA4E
:101A8000400C08BF91F0000F4FEA8C234FEAC122AF
:101A900043EA51514FEA1C5018BF00F5F0404FEA9D
:101AA000300018BF41F000415FEA6C5C00F0298013
:101AB000BCF1FF3F08BF40F080407047130C06BFE9
:101AC00012044FF0100C4FF0000C130E04BF120262
:101AD0000CF1080C130F04BF12010CF1040C930F4E
:101AE00004BF92000CF1020CD30F04BF52000CF1A2
:101AF000010C11464FF00002A0F11F00A0EB0C00FA
:101B0000704711F0004F08BF704731F000413FF4BB
:101B1000D5AF0B0C06BF09044FF0100C4FF0000CB2
:101B20000B0E04BF09020CF1080C0B0F04BF0901D6
:101B30000CF1040C8B0F04BF89000CF1020CCB0FCD
:101B400004BF49000CF1010CCCF1200322FA03F38D
:101B500041EA030102FA0CF2A0EB0C0000F10100D3
:101B60007047000023F07F4720F07F4C80EA03009D
:101B700000F00040ACEB070303F57C5303F1FF03D7
:101B80002DE9804909B44FEA144324EA03484FEA97
:101B9000154B25EA0B4E0FF2042606EB13273E7871
:101BA00003FB0667C7F5000707FB06F64FEAD646B4
:101BB00006F102064FEA543707FB066CCCF1005CD5
:101BC0004FEA1C472CEA074C0CFB06F507FB06F412
:101BD00004EB15464FEA961649085FEA320234BF15
:101BE00000204FF000404FEAD13706FB07FC4FEAD8
:101BF0001C4C0CFB0BF7D21B03FB0CF761EB070132
:101C00000CFB0EF7B0EB074072EB17420CFB08F72A
:101C100034BFA2EB0742B2EB074261EB17414FEA38
:101C20000C444FEA910706FB07FC4FEA1C4C0CFBE7
:101C30000BF7B0EBC74072EB573203FB0CF734BF26
:101C4000A2EBC742B2EBC74261EB57310CFB0EF778
:101C5000B0EBC70072EB57720CFB08F734BFA2EB76
:101C6000C702B2EBC70261EB57714FEA816141EAEB
:101C700092114FEA826242EA90124FEA806004EBCE
:101C8000CC04039F4FEAD13706FB07FC4FEA1C4CFC
:101C90000CFB0BF7D21B03FB0CF761EB07010CFBF2
:101CA0000EF7B0EB074072EB17420CFB08F734BF9E
:101CB000A2EB0742B2EB074261EB17414FEA8C55AA
:101CC00004EB9C244FEA910706FB07FC4FEA1C4CEF
:101CD0000CFB0BF7B0EBC74072EB573203FB0CF772
:101CE00034BFA2EBC742B2EBC74261EB57310CFBEA
:101CF0000EF7B0EBC70072EB57720CFB08F734BF5E
:101D0000A2EBC702B2EBC70261EB57714FEA8161E8
:101D100041EA92114FEA826242EA90124FEA8060F1
:101D200015EB4C2544F100044FEAD13706FB07FCC4
:101D30004FEA1C4C0CFB0BF7D21B03FB0CF761EBBF
:101D400007010CFB0EF7B0EB074072EB17420CFBE0
:101D500008F734BFA2EB0742B2EB074261EB174131
:101D60004FEA813141EA92414FEA823242EA90429F
:101D70004FEA80304FEA0C7615EB1C1544F1000455
:101D800048EA03434EEA0B484FF0000EB2EB080C52
:101D900071EB030724BF624639464EEB0E0E4FF03F
:101DA000000B0018524149414BEB0B0BB2EB080CF6
:101DB00071EB03077BF1000B24BF624639464EEB03
:101DC0000E0E4FF0000B0018524149414BEB0B0B2C
:101DD000B2EB080C71EB03077BF1000B24BF6246EA
:101DE00039464EEB0E0E51EA020718BF46F00106C7
:101DF00016EB0E7655F1000254F1000103D5BDE853
:101E00008901BDE80088BDE88901BDE80048B61930
:101E1000524141EB0101A3F10103704780807F7EB5
:101E20007D7C7B7A79787776767574737271717050
:101E30006F6E6E6D6C6C6B6A6A6968686766666502
:101E40006464636362616160605F5F5E5E5D5D5C90
:101E50005C5B5B5A5A595958585757565655555501
:101E60005454535352525251515050504F4F4F4E61
:101E70004E4D4D4D4C4C4C4B4B4B4A4A4A494949AF
:101E800048484847474747464646454545444444F1
:101E90004443434343424242424141419C46002B1A
:101EA00030D477002BD04FEA37071CB503B44FF07E
:101EB00010004FF01001BAF1000F06D0BCF1000F76
:101EC000DCBF40F0080040F008014FF000000FBCFC
:101ED000BDE810400BF1010BBBF1010F08BF5FEA39
:101EE000170722BF12F1010211F101014FF0004169
:101EF00043F1000300F0004043EA00007047F9D3CB
:101F00005708D0E746EA06464FEA164613F1400F57
:101F10001FDD13F1200FDFBF16430A4600212033D7
:101F20005B42BED0C3F1200746EA06464FEA16469A
:101F300002FA07F746EA070622FA03F2C3F120077E
:101F400001FA07F742EA070221FA03F14FF0000312
:101F5000A7E746EA020646EA06464FEA164646EA7A
:101F60000106BCBF46EA0646360C4FF000034FF0B0
:101F700000024FF0000194E72DE9804C70B49A46BE
:101F8000934691E8380007C831EA400C48BF34EA6C
:101F9000430C03D5FFF7E6FDFFF780FFF0BCBDE87B
:101FA000008C2DE9804C70B49A46934691E8380035
:101FB00007C810F0804F08BF13F0804F03D100F026
:101FC00005F8FFF76BFFF0BCBDE8008C20F07F4701
:101FD00023F07F4C80EA030000F0004007EB0C0385
:101FE000A3F57C53A3F1FE0392F0000F00F0B38041
:101FF00095F0000F00F077802DE901494FEA11407C
:1020000021EA00484FEA144624EA064700FB06FC92
:1020100008FB06F607FB08F818EB06484CEB164CD5
:1020200000FB07F718EB07484CEB17404FEA124B41
:1020300022EA0B4E4FEA154625EA06470BFB06FC43
:102040000EFB06F607FB0EFE1EEB064E4CEB164C87
:102050000BFB07F71EEB074E4CEB174B18EB0B086F
:1020600040F1000018EB0E0B58EB000840F10000A7
:102070008F1A4FF000014FF000063CBFC943661BAA
:1020800014BFB5EB040C00213CBFC943F61B4FEA5B
:10209000174427EA04454FEA1C472CEA074C04FB87
:1020A000076205FB07F70CFB05F616EB074642EB4C
:1020B000174204FB0CFC16EB0C4642EB1C421BEBDC
:1020C000060658EB020241414EEA8E0E46EA9E0693
:1020D00001D5BDE80189B619524141EB0101A3F1D7
:1020E0000103BDE801894FEA144524EA05464FEA99
:1020F000114721EA074C05FB07F406FB07F70CFB29
:1021000006F111EB074144EB174405FB0CFC11EB06
:102110000C4144EB1C444FEA124722EA074C05FBF2
:1021200007F206FB07F70CFB06F616EB074642EB39
:10213000174205FB0CFC16EB0C4642EB1C456A18DB
:1021400054F1000148BF7047B619524141EB0101FB
:10215000A3F10103704795F0000F37D04FEA114209
:1021600021EA02464FEA144724EA074C02FB07F132
:1021700006FB07F70CFB06F414EB074441EB174191
:1021800002FB0CFC14EB0C4441EB1C414FEA1547DD
:1021900025EA074C02FB07F506FB07F70CFB06F6E2
:1021A00016EB074645EB174502FB0CFC16EB0C46FD
:1021B00045EB1C42121951F1000148BF7047B61996
:1021C000524141EB0101A3F1010370474FEA14456D
:1021D00024EA05464FEA114721EA074C05FB07F1BF
:1021E00006FB07F70CFB06F212EB074241EB174127
:1021F00005FB0CFC12EB0C4251EB1C414FF00006AE
:1022000048BF7047921841EB0101A3F101037047E9
:10221000490050EAC12018BF04204A0D18BF40F001
:10222000010040F2FF72B2EB515F08BF40F00200C4
:10223000012808BF0520704730380A2801D2012044
:10224000704700207047000010B500290AD00878B8
:10225000002807D005487844FEF7DEFB002801D0AF
:10226000002010BD0248784410BD000002070000A5
:10227000FA06000021F0004201F00043A2F1605292
:10228000B2F5801F28BFD2F17F6C0BD95FEA001C2A
:1022900043EAC20242EB507018BF704728BF20F0DB
:1022A00001007047B2F5801FBCBF184670474FEA67
:1022B000410C1CF5001F02D2084600F076BA70B53A
:1022C00000F0CAF800000089FFF7F6BF4FF00040A9
:1022D000A0F58000704710F0004248BF4042B0FABD
:1022E00080F310FA03F10AD0C3F11D0303F58063F4
:1022F00002EB03524FEA415002EBD12170474FF0FD
:102300000000704770B5DFF848C11CEA111E1EBFFF
:102310001CEA13159EEA0C0F95EA0C0F00F06F8073
:1023200081EA03044EEAD47EAE4421EA4C1123EA4A
:102330004C1341F4801143F48013AEF17F7EA1FB76
:10234000024CA0FB0365361955EB0C05A1FB034CB1
:102350004CF10003A0FB021C16EB0C06654153F187
:102360000003094218BF46F0010613F4007F0BD1A9
:102370004FEA03314FEA053041EA155140EA165061
:1023800034036FF003020AE04FEAC3214FEAC5208D
:1023900041EA555140EA5650F4026FF0020202EB56
:1023A0002E4201EB025585EACE710AD05FEA440C59
:1023B00018BF24F0004450F1000041F1000120EA70
:1023C000D47040F2FE7C624500D270BDA84214BFBA
:1023D0004FF080444FF04044002E08BF0024BEF16F
:1023E000806FA8BFA1F1C041BDE8704080F282803B
:1023F00001F1C04101F000414FF0000070470CEACC
:1024000013159EEA0C0F18BF95EA0C0F06D081EA4F
:10241000030E4FF000000EF0004170BD00F01CF8FC
:102420008900013E00F007B800F009B84FEA430CFC
:102430005FEA5C5C08D081EA030100F05BB84FEA18
:10244000410C5FEA5C5CF6D102494FF00000704736
:102450000000FF070000F87F0EF1020E2EF0030EC1
:102460005EF8046B364205D4012A43EB030515F5EB
:10247000001F12D8012841EB010C1CF5001F0CD8DD
:102480000ED14FEAD17C0CEB4C0C0CF1020C15F583
:10249000001F08BF4CEBD37C04E04FF0080C01E0B8
:1024A0004FEAD37C0CEB4C0526FA05F606F007063E
:1024B000B6F1040C06D20EEB860CBDE870404CF071
:1024C000010C6047DFE80CF0090B02024FF00041FD
:1024D000A1F500214FF0000070BD194610460128FB
:1024E00051EB010418BFD4F5001484BF002001F0A3
:1024F000004170BD0808A0F500114FEA3101704796
:1025000043004FEAD30C4FEA3C0C43401FBF400747
:102510000CF1605113F0FE4F70471CF0006F03D1B7
:102520000CF00041002070470CF0004343EA50706B
:1025300040EACC0010B500F0F2F800BF00000092B5
:102540004FEA0001FFF7D6BF4FF00041A1F500218F
:102550004FF000007047000090EA010F48BF81F083
:10256000004100F12E81421A3CBF801A89184FEABF
:10257000D052A2EBD1534FF07F4C1CEA410F18BF51
:102580009CEA026F00F03B804FF0004C4CEA0020C8
:102590004CEA012121FA03FC10EB0C0C1ED202F1D3
:1025A000FF325FEA1C2040EBC25038BF70471CF07E
:1025B0007F0F4FEA400C18BFBCF17F4F38BF704708
:1025C000C3F12003994008BF20F00100BCF17F4F08
:1025D00038BF7047A0F1C04000F0E7B84FEA3C00B8
:1025E000000A40EBC25028BF1CF0FF0F4FEA400C1E
:1025F000E6D018BFBCF17F4F38BF7047EAE79CEACE
:10260000026F05D010EA5C0F08BF00F00040704771
:1026100010B500F084F800BF64FBBE3E4FF47F0CA1
:102620001CEAD0121EBF1CEAD11392EA0C0F93EAE7
:102630000C0F00F0478090EA010F48BF42F480720F
:102640004FF0004C4CEA00204CEA012102EB03025F
:10265000A0FB0113A2F50002002918BF43F00103FB
:102660005B0028BF4FEA330342EB22425FEA132CA0
:102670004CEBC2502EBFBCEB436FB2F57C0F7047E2
:102680004FEA036CBCF1004F08BF20F00100B2F527
:102690007C0F38BF70470BD582F0FF0212F5803FE8
:1026A000C8BF704700F1C040D8BF00F0004070477D
:1026B00000F5000C5FEA4C0C48BF7047B0F1C04019
:1026C00000F073B80CEAD11390EA010F48BF42F44E
:1026D0008072624538BF634504D280EA010000F091
:1026E0000040704710B500F01AF800BF8900013EA5
:1026F00000F007B800F009B85FEA410C5FEA1C6C13
:1027000008D080EA010000F050B85FEA400C5FEAB0
:102710001C6CF6D14FF00040A0F5800070470EF120
:10272000020E2EF0030E5EF8044B244204D44FEA4E
:102730004102B2F17F4F11D84FEA4003B3F17F4F0E
:102740000CD80ED14FEAD07C0CEB4C0C0CF1020CE7
:10275000B2F17F4F08BF4CEBD17C04E04FF0080C86
:1027600001E04FEAD17C0CEB4C0324FA03F404F0B3
:102770000704B4F1040C06D20EEB840CBDE8104043
:102780004CF0010C6047DFE80CF0070802024FF044
:102790000040A0F5800010BD0846420018BFD2F1ED
:1027A000807288BF00F0004010BDFF2141EAD05088
:1027B000C005704790EA010F48BF81F000413FF526
:1027C000D2AE421A04D882F00042A0EB02001144BB
:1027D0004FEAD052A2EBD1534FF07F4C1CEA410F8D
:1027E00018BF9CEA026F4AD04FF0004C4CEA002020
:1027F0004CEA012121FA03FCB0EB0C0C0FD412F0CF
:10280000FE0F36D05FEA4C001DD5001240EBC250DF
:1028100038BF70471CF03F0F18BF70470BE05FEAEE
:102820001C20A2F1010240EBC25038BF70471CF0DF
:102830007F0F18BF7047C3F12003994014BF401E9B
:1028400020F0010070474FEA1223800808BF70474C
:10285000B0FA80FCA2EB0C02CCF1280C60FA0CF070
:1028600093EA122F04BF00EBC25070474FEAC370C7
:102870007047130A5FEADC1008BF7047F6E79CEA6E
:10288000026F04D010EA5C0F08BF0020704710B53B
:10289000FFF745FF40DFF63E81F000407047FDF74F
:1028A00037BE000002400000000000A00000000051
:1028B00005400000000000C8000000000C400000BF
:1028C0000000409C00000000194000000020BCBE39
:1028D0000000000034400000BFC91B8E000000044F
:1028E000B5400000504BCFD06607E2CF010000009A
:1028F0006C4100003E8251AADFEEA73401000000C7
:10290000D9420000DCB5A0E23A301F97FFFFFFFF7D
:10291000B4450000FD25A0C8E9A3C14FFFFFFFFF9C
:10292000FF3F00000000008000000000FF3F0000AB
:102930000000008000000000742900080000002052
:1029400008000000500100087C2900080800002051
:1029500068060000700100081C0000004300000031
:10296000F8FFFFFF0C0000000E0000000F00000049
:0C2970002E00000000A24A04CDCC4C3F19
:04000005080001CD21
:00000001FF
