:020000040800F2
:1000000070060020BD010008C5010008C7010008F6
:10001000C9010008CB010008CD0100080000000064
:10002000000000000000000000000000CF010008F8
:10003000D101000800000000D30100081D050008E0
:10004000D7010008D7010008D7010008D701000830
:10005000D7010008D7010008D7010008D701000820
:10006000D7010008D7010008D7010008D701000810
:10007000D7010008D7010008D7010008D701000800
:10008000D7010008D7010008D7010008D7010008F0
:10009000D7010008D7010008D7010008D7010008E0
:1000A000D7010008D7010008D7010008D7010008D0
:1000B000D7010008D7010008D7010008D7010008C0
:1000C000D7010008D7010008D7010008D7010008B0
:1000D000D7010008D7010008D7010008D7010008A0
:1000E000D7010008D7010008D701000800F002F886
:1000F00000F055F814A696E8000CB244B344DA4573
:1001000001D100F04CF8BAE80F000FA696E83000D5
:10011000A5EB040504EB0607AAEB0704A7F101070A
:100120004FEA15154FEA3414A4F10104AC4201D38F
:1001300000F035F813F0010F18BFFB1A43F001036C
:1001400000F001F8DBE7184704110000241100005B
:10015000103A24BF78C878C1FAD8520724BF30C8F3
:1001600030C144BF04680C60704700007047000055
:100170000023002400250026103A28BF78C1FBD8B0
:10018000520728BF30C148BF0B607047642900F098
:100190008980002070471FB51FBD10B510BD00F04D
:1001A00039F91146FFF7F7FF00F07EFF00F057F92D
:1001B00003B4FFF7F2FF03BC00F05EF90948804783
:1001C00009480047FEE7FEE7FEE7FEE7FEE7FEE739
:1001D000FEE7FEE7FEE7FEE704480549054A064B51
:1001E0007047000041050008ED0000087000002085
:1001F0007006002070020020700200200FB41CB5B1
:100200000C0007AA009007D04142A14202D320442B
:10021000401E01E04FF0FF30074B7B4469460190E0
:10022000069800F0DCF80020002C01D0009908703E
:100230001CBC5DF814FB0000E70100002DE9F04153
:100240000E460446002020622046E168884730B30D
:10025000252805D0D4E901219047206A401CF2E707
:10026000E168204600278847050018D0A5F1410025
:10027000192802D820354FF4006732462946204617
:100280002760FFF783FF40B1012804D0F61D26F058
:1002900007060836D8E7361DD6E72846DAE7206A8B
:1002A000BDE8F0812DE9F04106460024106875296B
:1002B000314616A510D0AFF30080002802DA404284
:1002C00013A507E031688A0701D512A502E04907A6
:1002D00004D511A5012401E0AFF3008000210A221A
:1002E00006F1240709E0B0FBF2FCB0FBF2F302FBDD
:1002F0001C00303078541846491C0028F3D123469E
:100300002A463046BDE8F04100F00BB8000000007E
:100310002D0000002B0000002000000070477047F7
:1003200070472DE9F0470D4699469246044600F184
:1003300024080168880604D5E06921F010012160D5
:1003400000E00120A84201DD471B00E00027A16971
:100350007A1902EB0900081AA0612078C00602D4BD
:100360002046AFF30080002608E0D4E901211AF806
:1003700006009047206A401C761C20624E45F4DB44
:100380002078C0060AD52046AFF3008006E0D4E905
:10039000012130209047206A401C2062381EA7F1BE
:1003A0000107F4DC07E0D4E9012118F805009047C3
:1003B000206A401C2062281EA5F10105F3DC2046BE
:1003C000AFF300802078000602D50220BDE8F08758
:1003D0000120FBE701694A1C02610878704700B5FB
:1003E0008FB0CDE901310021059105497944CDE96E
:1003F000031011466846FFF721FF0FB000BD000053
:10040000E5FFFFFFD1E900239A4202D2531C0B60A3
:1004100010707047754600F02BF8AE46050069462F
:10042000534620F00700854618B020B5FFF7D4FEEC
:10043000BDE820404FF000064FF000074FF00008E5
:100440004FF0000BAC46ACE8C009ACE8C009ACE822
:10045000C009ACE8C00921F007018D46704710B50E
:100460000446AFF300802046BDE81040FFF7A0BE71
:10047000004870470800002001491820ABBEFEE785
:10048000260002007047000080B582B040F62D00C3
:10049000ADF806000DF106020120A62100F0F8FAE1
:1004A00002B080BD2DE9F04182B0064601209046A1
:1004B0000D4600F0AFFA0120A6210022002700F02F
:1004C000CBF90120322100F0FFF9012000F0C6FA3B
:1004D000012000F09FFA0120A621012200F0BCF9C2
:1004E0000DF10204791F4FF0010018BF012100F047
:1004F00061FAE0550137062FF4D1012000F0AEFA81
:10050000BDF80200BDF806103080BDF80400288058
:10051000A8F8001002B0BDE8F081000040F26800C9
:10052000C2F20000016842F6000201310160016878
:10053000CEF66B62914224BF00210160704700003B
:1005400082B041F20400C4F2020050F8041C002200
:1005500041F0010140F8041C0168CFF6FF02114090
:10056000016050F8041C4FF6FF72CFF6F66211409E
:1005700040F8041C50F8041C21F4802140F8041CAD
:10058000016821F4FE0101604FF41F014160002168
:100590000191009150F8041C41F4803140F8041C92
:1005A00050F8041C01F400310091019901310191CE
:1005B000009919B90199B1F5A06FF1D150F8041C57
:1005C000890354BF0021012100910099012936D1EE
:1005D00042F20001C4F202010A6842F010020A600D
:1005E0000A6822F007020A600A6842F002020A6002
:1005F0000168016001680160016841F48061016087
:10060000016821F47C110160016841F4E811016086
:1006100050F8041C41F0807140F8041C50F8041C90
:100620008901FBD5016821F003010160016841F0F7
:1006300002010160016801F00C010829FAD14EF6AF
:100640000850CEF200004FF00061016002B0704728
:1006500040F2680CC2F2000CDCF800204FF47A7310
:10066000434300BFDCF80010891A9942FAD380B1E5
:1006700040F2B562C0F6000203E000BF013808BFD7
:100680007047DCF80010511AC9087C29F6D800BF61
:10069000FEE7704740F26801C2F20001096840F2CB
:1006A000B562C0F60002511A814228BF704700BFF0
:1006B000FEE7000040F26800C2F2000000687047E8
:1006C000B0B503284ED0022824D0012818BFB0BDF1
:1006D00041F2180CC4F2020CDCF80000072940F0CB
:1006E0000400CCF800004FEA810065D840F6000411
:1006F000C4F201044FF00F0CD4F800E00CFA00F142
:100700002EEA0101216021688340194340F0020074
:10071000216080E041F21800C4F202000568072958
:1007200045F0080505604FEA81005FD840F60005F6
:10073000C4F201050F21D5F80044814024EA0101EB
:10074000C5F80014D5F8001483401943C5F8001407
:1007500040F00200D5F8001402FA00F00843C5F892
:100760000004B0BD41F21800C4F20200056840F672
:10077000044C45F01005C4F2010C056007294FEA4E
:1007800081004ED809010F25DCF8FC4305FA01F180
:1007900024EA0101CCF8FC13DCF8FC138340194374
:1007A000CCF8FC1340F00200DCF8FC1302FA00F075
:1007B0000843CCF8FC03B0BD40F60004C4F20104C9
:1007C000A0F120054FF00F0CD4F804E00CFA05F16D
:1007D0002EEA010161606168AB40194361601E3817
:1007E000616802FA00F008436060B0BD40F604445E
:1007F000C4F20104A0F120014FF00F0CD4F800E086
:100800000CFA01F52EEA05052560256803FA01F1C9
:10081000294321601E38216802FA00F00843206055
:10082000B0BDA0F120010F25DCF800448D4024EA82
:100830000505CCF80054DCF8005403FA01F1294313
:10084000CCF800141E38DCF8001402FA00F008435B
:10085000CCF80004B0BD000081B0012817D078BBEF
:1008600045F21440C4F20000114320F8041C00BFFC
:1008700001888907FCD506E00188009181880091F4
:10088000018889071CD501888907F5D418E045F649
:100890001400114345F21442C4F20000C4F20002F5
:1008A000A2F8FC1301888907FCD506E001880091B5
:1008B000818800910188890702D501888907F5D4CC
:1008C000012001B070470000A0B101281FD145F6FA
:1008D0001400C4F2000000BF02881206FCD545F2E5
:1008E0001442C4F20002A2F8FC1300BF01880906FA
:1008F000FCD50CE045F21440C4F200000288120658
:10090000FCD520F8041C00BF01880906FCD5012095
:100910007047000010B50C4641F21C01C4F2020100
:1009200051F8042C012842F0010241F8042C1DD09A
:10093000E8BB0868032240F400100860022006218A
:100940000323FFF7BDFE0220072103220323FFF745
:10095000B7FE45F20040C4F2000008218180848384
:10096000018841F001010180012010BD08680322C7
:1009700040F48000086002200A210323FFF7A0FE54
:1009800002200B2103220323FFF79AFE45F6040001
:10099000C4F2000008210180048345F20040C4F243
:1009A0000000B0F8001441F00101A0F8001401208B
:1009B00010BD0000D8B1012817D145F61400C4F2CB
:1009C000000000BF02885206FCD545F20042C4F286
:1009D0000002B2F81004B2F8003400290CBF23F46E
:1009E000806143F48061A2F80014C0B2704745F200
:1009F0000042C4F2000200BF908A4006FCD5108A73
:100A00001388C0B2002914BF43F4806123F48061CD
:100A10001180704701280DD0E8B945F20040C4F2BA
:100A20000000018841F48071018000BF818AC907FC
:100A3000FCD010E045F20040C4F20000B0F8001411
:100A400041F48071A0F8001445F61400C4F20000CF
:100A50000188C907FCD001207047000001280AD096
:100A600098B945F20040C4F20000018841F40071D9
:100A700001800120704745F20040C4F20000B0F848
:100A8000001441F40071A0F8001401207047000028
:100A900010B581B045F6140E45F2144CC4F2000EA8
:100AA0000128C4F2000C0CD0B0B93CF8143C43F45B
:100AB00080732CF8143C00BFBCF80030DB07FBD07F
:100AC0000AE0BCF8EC3343F48073ACF8EC3300BFBD
:100AD000BEF80030DB07FBD0012818D070BB2CF823
:100AE000041C00BFBCF800108907FBD50AE000BF5A
:100AF000BCF800100091BCF804100091BCF8001084
:100B000089071BD5BCF800108907F1D416E0ACF8B2
:100B1000FC1300BFBEF800108907FBD50AE000BF38
:100B2000BEF800100091BEF804100091BEF800104D
:100B3000890703D5BEF800108907F1D4137813B3E1
:100B4000002102E00131535CEBB178B10128F9D109
:100B5000BEF800402406FBD5DBB2ACF8FC3300BF86
:100B6000BEF800301B06FBD5ECE700BFBCF8004028
:100B70002406FBD5DBB22CF8043C00BFBCF80030E7
:100B80001B06FBD5DEE7012807D060B93CF8140C42
:100B900040F400702CF8140C05E0BCF8EC0340F4B1
:100BA0000070ACF8EC03012001B010BDF0B581B0CD
:100BB0000D460446FFF72EFF20464E210022FFF788
:100BC0004BFE20460821FFF77FFE2046FFF746FF39
:100BD0000A20FFF75FFD2046FFF71CFF20464E214D
:100BE0000022FFF739FE20460C21FFF76DFE20465C
:100BF000FFF734FF0520FFF74DFD05F0F007204615
:100C000007F10C06FFF706FF20464E210022FFF7F2
:100C100023FE20463146FFF757FE2046FFF71EFF12
:100C20000A20FFF737FD204607F10806FFF7F2FE1E
:100C300020464E210022FFF70FFE20463146FFF7E7
:100C400043FE2046FFF70AFF1420FFF723FD20464E
:100C5000FFF7E0FE20464E210022FFF7FDFD204673
:100C60000C21FFF731FE2046FFF7F8FE0520FFF7C5
:100C700011FD2D01204605F10C06FFF7CBFE2046A5
:100C80004E210022FFF7E8FDF1B22046FFF71CFEDF
:100C90002046FFF7E3FE0A20FFF7FCFC204608355C
:100CA000FFF7B8FE20464E210022FFF7D5FDE9B23E
:100CB0002046FFF709FE204601B0BDE8F040FFF7EF
:100CC000CDBE0000F0B581B00D460446FFF7A2FE90
:100CD00020464E210022FFF7BFFD20460921FFF7E5
:100CE000F3FD2046FFF7BAFE0A20FFF7D3FC2046AB
:100CF000FFF790FE20464E210022FFF7ADFD204673
:100D00000D21FFF7E1FD2046FFF7A8FE0520FFF7C4
:100D1000C1FC05F0F007204607F10D06FFF77AFE4B
:100D200020464E210022FFF797FD20463146FFF76F
:100D3000CBFD2046FFF792FE0A20FFF7ABFC2046D2
:100D400007F10906FFF766FE20464E210022FFF755
:100D500083FD20463146FFF7B7FD2046FFF77EFEB4
:100D60001420FFF797FC2046FFF754FE20464E2143
:100D70000022FFF771FD20460D21FFF7A5FD20465B
:100D8000FFF76CFE0520FFF785FC2D01204605F1DD
:100D90000D06FFF73FFE20464E210022FFF75CFDC7
:100DA000F1B22046FFF790FD2046FFF757FE0A20DC
:100DB000FFF770FC20460935FFF72CFE20464E2138
:100DC0000022FFF749FDE9B22046FFF77DFD2046EE
:100DD00001B0BDE8F040FFF741BE000010B52D2185
:100DE0000446FFF797FD1420FFF732FC2046FFF77B
:100DF00011FE20464E210022FFF72EFD204608213D
:100E0000FFF762FD2046FFF729FE0A20FFF742FCAC
:100E10002046FFF7FFFD20464E210022FFF71CFD74
:100E200020460C21FFF750FD2046FFF717FE052056
:100E3000FFF730FC2046FFF7EDFD20464E21002253
:100E4000FFF70AFD20463C21FFF73EFD2046FFF755
:100E500005FE0A20FFF71EFC2046FFF7DBFD2046BB
:100E60004E210022FFF7F8FC20463821FFF72CFD29
:100E70002046FFF7F3FD0120FFF7EAFB2046FFF7CE
:100E8000C9FD20464E210022FFF7E6FC204608213E
:100E9000FFF71AFD2046FFF7E1FD0A20FFF7FAFBF6
:100EA0002046FFF7B7FD20464E210022FFF7D4FC75
:100EB00020460C21FFF708FD2046FFF7CFFD052057
:100EC000FFF7E8FB2046FFF7A5FD20464E21002254
:100ED000FFF7C2FC20463C21FFF7F6FC2046FFF757
:100EE000BDFD0A20FFF7D6FB2046FFF793FD204605
:100EF0004E210022FFF7B0FC20463821FFF7E4FC2A
:100F00002046FFF7ABFD0120FFF7A2FB2046FFF7CD
:100F100081FD20464E210022FFF79EFC204608213D
:100F2000FFF7D2FC2046FFF799FD0A20FFF7B2FB3E
:100F30002046FFF76FFD20464E210022FFF78CFC74
:100F400020460C21FFF7C0FC2046FFF787FD052057
:100F5000FFF7A0FB2046FFF75DFD20464E21002253
:100F6000FFF77AFC20463C21FFF7AEFC2046FFF756
:100F700075FD0A20FFF78EFB2046FFF74BFD20464C
:100F80004E210022FFF768FC20463821FFF79CFC29
:100F90002046FFF763FD0120FFF75AFB2046FFF7CD
:100FA00039FD20464E210022FFF756FC204608213D
:100FB000FFF78AFC2046FFF751FD0A20FFF76AFB86
:100FC0002046FFF727FD20464E210022FFF744FC74
:100FD00020460C21FFF778FC2046FFF73FFD052057
:100FE000FFF758FB2046FFF715FD20464E21002253
:100FF000FFF732FC20462C21FFF766FC2046FFF766
:101000002DFD0A20FFF746FB2046FFF703FD204693
:101010004E210022FFF720FC20462821FFF754FC38
:101020002046FFF71BFD20462C21FFF7BFFD0520C2
:10103000FFF70EFB20460C21FFF7B8FD0520FFF758
:1010400007FB20460121FFF7B1FD0520FFF700FB5C
:1010500020460221FFF7AAFD0520BDE81040FFF75A
:10106000F7BA0000B0B504466FF07F00022908BF50
:101070006FF03F001044C1B220461D46FFF796FDB9
:101080006420FFF707FB2878002808BFB0BD013DAA
:10109000C1B22046FFF716FE6420FFF7FBFAA878DE
:1010A00001350028F4D1B0BD8CB000F0AFF80020BD
:1010B000FFF794FE44A3002001210022FFF7D2FF96
:1010C0004FF47A70FFF7C4FA00200121FFF76EFD9C
:1010D0003220FFF7BDFA01202821FFF71BFCFFF7A4
:1010E000D3F90120FFF796FC0120A6210022FFF78B
:1010F000B3FB01200021FFF7E7FB0120FFF7AEFC67
:101100000120FFF787FC0120A6210122FFF7A4FBA5
:1011100001200021FFF74EFC04460120FFF79EFC52
:10112000E52C49D130A3002000210022FFF79AFFCF
:101130004FF47A70FFF78CFA00200121FFF736FD9B
:101140003220FFF785FA0DF12E080DF12C090DF173
:101150002A0A29A70DF10A042AA500BF00200121AF
:10116000FFF724FD3220FFF773FA40464946524606
:10117000FFF798F9BDF92E30BDF92C6020462021EB
:101180003A460096FFF73AF8002000210022234655
:10119000FFF768FFBDF92A30204620212A46FFF7D5
:1011A0002DF80020012100222346FFF75BFF4FF4BA
:1011B0007A70FFF74DFAD1E707A300200021002243
:1011C000FFF750FFFEE700BF496E697420414458A5
:1011D0004C3334352E2E2E004144584C33343520B8
:1011E0004572726F720000004144584C3334352010
:1011F0005265616479000000583A20256420593A0C
:10120000202564005A3A2025640000004EF21000A8
:10121000CEF20000002140F2000272B60160C2F27C
:10122000000212684DF68363C4F21B33A2FB032352
:101230009A0C42604EF62352CEF20002F023137055
:1012400081600721016062B6704700006C120008DF
:101250000000002004000000500100087012000887
:1012600008000020680600007001000800A24A047F
:04000005080001BD31
:00000001FF
