:020000040800F2
:1000000070060020CD010008D5010008D7010008C6
:10001000D9010008DB010008DD0100080000000034
:10002000000000000000000000000000DF010008E8
:10003000E101000800000000E3010008D90D0008FC
:10004000E7010008E7010008E7010008E7010008F0
:10005000E7010008E7010008E7010008E7010008E0
:10006000E7010008E7010008E7010008E7010008D0
:10007000E7010008E7010008E7010008E7010008C0
:10008000E7010008E7010008E7010008E7010008B0
:10009000E7010008E7010008E7010008E7010008A0
:1000A000E7010008E7010008E7010008E701000890
:1000B000E7010008E7010008E7010008E701000880
:1000C000E7010008E7010008E7010008E701000870
:1000D000E7010008E7010008E7010008E701000860
:1000E000E7010008E7010008E701000800F002F856
:1000F00000F05DF814A696E8000CB244B344DA456B
:1001000001D100F054F8BAE80F000FA696E83000CD
:10011000A5EB040504EB0607AAEB0704A7F101070A
:100120004FEA15154FEA3414A4F10104AC4201D38F
:1001300000F03DF813F0010F18BFFB1A43F0010364
:1001400000F001F8DBE7184788240000A82400002D
:10015000103A24BF78C878C1FAD8520724BF30C8F3
:1001600030C144BF04680C60704700007047000055
:100170000023002400250026103A28BF78C1FBD8B0
:10018000520728BF30C148BF0B607047662902F094
:10019000D381002070471FB500F010FB0400002041
:1001A000002101F0F7FFE0601FBD10B510BD00F0A9
:1001B00005FC1146FFF7EFFF01F046FB00F023FCC2
:1001C00003B4FFF7F2FF03BC00F066FC0948804768
:1001D00009480047FEE7FEE7FEE7FEE7FEE7FEE729
:1001E000FEE7FEE7FEE7FEE704480549054A064B41
:1001F00070470000FD0D0008ED00000870000020B1
:100200007006002070020020700200200FB41CB5A0
:100210000C0007AA009007D04142A14202D320441B
:10022000401E01E04FF0FF30074B7B4469460190D0
:10023000069800F0A8FA0020002C01D00099087060
:100240001CBC5DF814FB00007F0500002DE9F047A1
:100250004FF0000A89460446C0F820A02046E16815
:100260008847002876D0252806D0D4E90121904778
:10027000206A401C2062F1E7E1682046002588479B
:10028000C4F81CA006460027C4F818A02A2E09D0DE
:10029000304601F077FF38B304EB8708303EC8F8EA
:1002A000186019E059F8041B204604EB870291619D
:1002B000E1688847012F064618D1E069002820DA56
:1002C00025F020051DE0D8F8180000EB800006EBB3
:1002D00040003038C8F818002046E16888470646D4
:1002E00001F050FF0028EED1012F0AD02E2E08D1A8
:1002F0002046E16888477F1C0646022F45F020050E
:10030000C4DBA069002803DA404245F00105A06182
:10031000E80701D025F01005B6B1A6F14100192873
:1003200002D8203645F400654A463146204625600D
:100330004D46FFF72BFF58B1012806D0ED1D25F0E3
:10034000070000F1080989E704E005F1040985E7E1
:1003500030468AE7206ABDE8F087704770477047EB
:100360002DE9FF4F0C461E464FF0FF378BB0D2E908
:100370000001DDF860800A908A46C1F30A5505B98C
:100380003D46002108464FF00000BAF1000F00F48E
:10039000400005DA00EB80004FF4400101EA500014
:1003A0004FEA9059B9F1010F00DDB9460A9850EAB9
:1003B0004A000ED044F61050A5F2FF3545432F14E5
:1003C000B8F1000F1ED07542291E1EDDC9F10002D2
:1003D0001CE0B8F1010F4FF0000001D0302103E024
:1003E000F24305E02154401CB042FBDB30460022C2
:1003F000002121540B99C1F80880C1E900200FB0F9
:10040000BDE8F08FBD1B6D1CDEE74A4600DA69428D
:1004100006A800F05DFA06AB93E8070003AB83E89B
:10042000070050460A9901F0D0FA8DE80700A0F5C0
:1004300000501F3800900398002D0ADD42F21F0182
:100440004A460844002303A90390684601F03AFD98
:1004500009E0A0F500504A461F38002303A9039085
:10046000684601F044FD8DE807000004000C03D04D
:100470004FF0FF30410800E01046B8F1000F03D004
:100480000022009215461EE0751E05D400F09AF970
:10049000303262556D1EF9D5B3460122084302D0B1
:1004A00000227F1C04E02078302801D100227F1E2A
:1004B000002A099784D01DE0112D07DA00F082F997
:1004C000303262556D1C50EA0102F5D1084302D06A
:1004D0000098C8B10EE00021681E05E0235C625C54
:1004E00063542254401E491C8142F7DBAB46A81BD3
:1004F000401E0990002004F80B000B98099AC0F8E0
:100500000880C0E9002B7AE711264FF0000857E772
:100510002DE9F04F88460446D21D22F0070191B024
:10052000D1E90001CDE90A0101F018FE02460B985D
:10053000C00F01D02D2007E02068810701D52B20B6
:1005400002E0202101EAC000032A099001D0072A15
:1005500005DB03464146204600F07AF90BE120789E
:10056000800601D5E06900E00620B8F1650F8146FC
:1005700006D0B8F1660F18D0B8F1670F70D131E02E
:100580000020B9F1110F009001DB112301E009F106
:1005900001030AAA01A90CA8FFF7E2FEDDE90C702D
:1005A000002609F10105834647E001204B460090F3
:1005B0004FF000470AAA01A90CA8FFF7D1FEDDE918
:1005C0000DB00C995D46002610B909F101000D1817
:1005D000B9EB050003D4C0F1FF3609F10105A5EB25
:1005E00009002BE0B9F1010F01DA4FF001090020F9
:1005F000B9F1110F0090484601DD112300E00346D8
:100600000AAA01A90CA8FFF7ABFEDDE90C704D4664
:1006100000268346207800070AD4AB4500DA5D4601
:1006200001A8012D04DD411911F8011C302907D062
:100630004F4502DA17F1040F04DA012082460FE079
:100640006D1EEEE7002F02DCED1B3E4403E0781C3C
:10065000A84200DD7D1CB81B00F1010A4FF00047E5
:100660002078000703D4AA4501DB4FF0FF3A0021B0
:10067000B7F1004F0DF143088DF8431024D002204C
:100680002B23002F01DA7F422D230A21021EA0F125
:10069000010000DC5FB197FBF1FC97FBF1F201FB7D
:1006A0001C7C17460CF1300C08F801CDEEE7A8F1E0
:1006B000010003702188090501D5452100E065216D
:1006C000A0F1010800F8011C09980FA9A1EB080787
:1006D000FF1D00B10120411901EBEA70A169384406
:1006E000081A401EA0612078C00602D42046AFF34D
:1006F0000080099828B1D4E901219047206A401C64
:1007000020622078C00622D52046AFF300801EE08C
:10071000002E04DBB34502DD01A8805D00E030203F
:10072000D4E901219047206A401C2062761CAAF17E
:1007300001005FEA000A0AD100F040F8C0680168D1
:10074000405CD4E901219047206A401C2062281EA9
:10075000A5F10105DCDC07E0D4E9012118F8010B63
:100760009047206A401C2062381EA7F10107F3DC85
:100770002046AFF30080032011B041E601694A1C16
:1007800002610878704700B58FB0CDE901310021D2
:10079000059105497944CDE9031011466846FFF7F4
:1007A00055FD0FB000BD0000E5FFFFFFD1E90023BC
:1007B0009A4202D2531C0B60107070470048704779
:1007C0002800002030B5B0F10A0271F100034FEAB1
:1007D000900E4EEA817EB0EB0E0061EB91014FEA84
:1007E000101E4EEA017E10EB0E0041EB11114FEA94
:1007F000102E4EEA016E10EB0E0041EB11214FEA74
:10080000104E4EEA014E10EB0E0041EB1141401824
:1008100041F100014FEAD00040EA41704FEAD101B6
:100820004FEA810444EA907410EB800544EB010424
:100830006D1944EB0404521BA3414FF0000348BF61
:100840000A3200D530BD401C41F1000130BD00002E
:100850002DE9F0411F46044603260168072A01F4EA
:10086000006004DB08B116A505E016A503E008B199
:1008700015A500E015A521F010002060A069C01E9C
:10088000A0610FB1401EA0612046AFF300804FB1C0
:10089000D4E9012138469047206A401C2062C01CE0
:1008A000206206E0206AFAE7D4E9012115F8010B7D
:1008B0009047761EF8D22046AFF30080BDE8F08165
:1008C0004E414E006E616E00494E4600696E6600F4
:1008D0002DE9F047814616468AB0354878440DC860
:1008E0008DE80D0032487844801C03AC0DC884E8C4
:1008F0000D0041F69B300844372190FBF1F290FB4C
:10090000F1F5A5F1800501FB12041B3C02D5644200
:10091000012000E00020DFF898A080460027FA447C
:10092000AAF1BE0A0EE0E0070AD03246684607EB9D
:10093000470101230AEB810101F0D9FA8DE8070094
:1009400064107F1C002CEED1194F7F44AE3F19E09C
:10095000E80715D007EB04100DF1180A90E80E0017
:100960008AE80E00C068F04201D19819089032461A
:10097000012306A903A801F0BAFA03AB83E8070034
:100980006D10641C002DE3D14FF00103324669461F
:10099000B8F1000F03A802D001F094FA01E001F0D1
:1009A000A6FAC9E90001C9F808200AB0BDE8F08735
:1009B000D81C000000487047080000207546FFF76B
:1009C000F9FFAE4605006946534620F0070085460C
:1009D00018B020B5FFF708FCBDE820404FF0000636
:1009E0004FF000074FF000084FF0000BAC46ACE8AA
:1009F000C009ACE8C009ACE8C009ACE8C00921F006
:100A000007018D46704710B50446AFF300802046BD
:100A1000BDE81040FFF7D4BB4FF0013C50F8042B69
:100A200051F8043B9A4221D1A2EB0C03934313EA01
:100A3000CC1317D150F8042B51F8043B9A4215D12E
:100A4000A2EB0C03934313EACC130BD150F8042B05
:100A500051F8043B9A4209D1A2EB0C03934313EAE9
:100A6000CC13DBD04FF00000704700BFD01A01BAA2
:100A7000B1FA81F101F0180122FA01F0CB40DBB2AA
:100A8000C0B2C01AC1F120012CFA01F3D11A91436E
:100A900011EAC311E6D1704701491820ABBEFEE749
:100AA000260002007047000010B52D21044600F01A
:100AB0008FFB3DA300200121002200F0A3FE4FF494
:100AC0007A7000F023FA0020012100F03FFC3BA3E4
:100AD00000200121002200F095FE4FF47A7000F012
:100AE00015FA0020012100F031FC204600F0F0FB57
:100AF0002046A621002200F00DFB20462D2100F00B
:100B000041FB2046082100F03DFB204600F004FC9C
:100B10002FA300200121002200F074FE4FF47A7010
:100B200000F0F4F90020012100F010FC204600F054
:100B3000CFFB2046A621002200F0ECFA204631210E
:100B400000F020FB2046082100F01CFB204600F0AE
:100B5000E3FB4FF47A7000F0D9F922A300200121C1
:100B6000002200F04FFE4FF47A7000F0CFF9002021
:100B7000012100F0EBFB204600F0AAFB2046A62155
:100B8000002200F0C7FA20462C2100F0FBFA204694
:100B90000A2100F0F7FA204600F0BEFB4FF47A700D
:100BA000BDE8104000F0B2B94144584C3334352010
:100BB000496E6974205374617274000053657474D3
:100BC000696E6720506F776572204374726C000005
:100BD00053657474696E67204461746120466F7256
:100BE0006D61740053657474696E6720446174614B
:100BF00020526174650000002DE9F04F83B0CDE90B
:100C000001238A46074600F063FB3846A6210022EE
:100C100000F080FA3846322100F0B4FA384600F08D
:100C200057FB3846A621012200F074FA384600210D
:100C300000F01EFB8346384600F06EFB384600F09D
:100C400047FB3846A621002200F064FA38463321DB
:100C500000F098FA384600F03BFB3846A621012206
:100C600000F058FA3846002100F002FB05463846ED
:100C700000F052FB384600F02BFB3846A62100223C
:100C800000F048FA3846342100F07CFA384600F08B
:100C90001FFB3846A621012200F03CFA384600210D
:100CA00000F0E6FA0646384600F036FB384600F01B
:100CB0000FFB3846A621002200F02CFA38463521D9
:100CC00000F060FA384600F003FB3846A621012206
:100CD00000F020FA3846002100F0CAFA04463846EF
:100CE00000F01AFB384600F0F3FA3846A62100223D
:100CF00000F010FA3846362100F044FA384600F089
:100D0000E7FA3846A621012200F004FA384600210D
:100D100000F0AEFA8046384600F0FEFA384600F0A1
:100D2000D7FA3846A621002200F0F4F938463721D8
:100D300000F028FA384600F0CBFA3846A621012206
:100D400000F0E8F93846002100F092FA8146384672
:100D500000F0E2FA4BEA052000B246EA042448EA31
:100D6000092701F05EFA40F20008C3F6707800220D
:100D7000434601F06DFA4AF2053549F60156C3F6CD
:100D80009225C4F223062A46334601F061FA01F0A7
:100D900017FACAF8000020B201F043FA00224346D5
:100DA00001F056FA2A46334601F052FA01F008FAE9
:100DB0000199086038B201F034FA0022434601F08C
:100DC00047FA2A46334601F043FA01F0F9F902994D
:100DD000086003B0BDE8F08F40F26800C2F2000086
:100DE000016842F60002013101600168CEF66B62D3
:100DF000914224BF002101607047000082B041F29F
:100E00000400C4F2020050F8041C002241F0010169
:100E100040F8041C0168CFF6FF021140016050F851
:100E2000041C4FF6FF72CFF6F662114040F8041C26
:100E300050F8041C21F4802140F8041C016821F4BE
:100E4000FE0101604FF41F014160002101910091FA
:100E500050F8041C41F4803140F8041C50F8041C84
:100E600001F400310091019901310191009919B902
:100E70000199B1F5A06FF1D150F8041C890354BF5A
:100E80000021012100910099012936D142F200018F
:100E9000C4F202010A6842F010020A600A6822F0F5
:100EA00007020A600A6842F002020A6001680160F3
:100EB00001680160016841F480610160016821F40A
:100EC0007C110160016841F4E811016050F8041CD4
:100ED00041F0807140F8041C50F8041C8901FBD5D6
:100EE000016821F003010160016841F00201016025
:100EF000016801F00C010829FAD14EF60850CEF233
:100F000000004FF00061016002B0704740F2680CD1
:100F1000C2F2000CDCF800204FF47A73434300BFA8
:100F2000DCF80010891A9942FAD380B140F6717248
:100F3000C0F6000203E000BF013808BF7047DCF8CC
:100F40000010511AC9087C29F6D800BFFEE7704787
:100F500040F26801C2F20001096840F67172C0F601
:100F60000002511A814228BF704700BFFEE700000F
:100F700040F26800C2F2000000687047B0B5032874
:100F80004ED0022824D0012818BFB0BD41F2180C61
:100F9000C4F2020CDCF80000072940F00400CCF891
:100FA00000004FEA810065D840F60004C4F2010455
:100FB0004FF00F0CD4F800E00CFA00F12EEA01011A
:100FC000216021688340194340F00200216080E0E5
:100FD00041F21800C4F202000568072945F008052F
:100FE00005604FEA81005FD840F60005C4F20105B4
:100FF0000F21D5F80044814024EA0101C5F800140E
:10100000D5F8001483401943C5F8001440F00200DD
:10101000D5F8001402FA00F00843C5F80004B0BD8A
:1010200041F21800C4F20200056840F6044C45F095
:101030001005C4F2010C056007294FEA81004ED863
:1010400009010F25DCF8FC4305FA01F124EA01014E
:10105000CCF8FC13DCF8FC1383401943CCF8FC13E8
:1010600040F00200DCF8FC1302FA00F00843CCF870
:10107000FC03B0BD40F60004C4F20104A0F1200559
:101080004FF00F0CD4F804E00CFA05F12EEA010140
:1010900061606168AB40194361601E38616802FAA3
:1010A00000F008436060B0BD40F60444C4F201049F
:1010B000A0F120014FF00F0CD4F800E00CFA01F57C
:1010C0002EEA05052560256803FA01F12943216010
:1010D0001E38216802FA00F008432060B0BDA0F17C
:1010E00020010F25DCF800448D4024EA0505CCF8EA
:1010F0000054DCF8005403FA01F12943CCF8001441
:101100001E38DCF8001402FA00F00843CCF80004A2
:10111000B0BD000081B0012817D078BB45F2144063
:10112000C4F20000114320F8041C00BF01888907A5
:10113000FCD506E00188009181880091018889072B
:101140001CD501888907F5D418E045F61400114331
:1011500045F21442C4F20000C4F20002A2F8FC13EB
:1011600001888907FCD506E00188009181880091FB
:101170000188890702D501888907F5D4012001B0CB
:1011800070470000A0B101281FD145F61400C4F239
:10119000000000BF02881206FCD545F21442C4F2DA
:1011A0000002A2F8FC1300BF01880906FCD50CE080
:1011B00045F21440C4F2000002881206FCD520F863
:1011C000041C00BF01880906FCD5012070470000FF
:1011D00010B50C4641F21C01C4F2020151F8042C76
:1011E000012842F0010241F8042C1DD0E8BB086838
:1011F000032240F400100860022006210323FFF7B9
:10120000BDFE0220072103220323FFF7B7FE45F2AC
:101210000040C4F20000082181808483018841F0ED
:1012200001010180012010BD0868032240F4800004
:10123000086002200A210323FFF7A0FE02200B21F1
:1012400003220323FFF79AFE45F60400C4F20000D0
:1012500008210180048345F20040C4F20000B0F888
:10126000001441F00101A0F80014012010BD00009D
:10127000D8B1012817D145F61400C4F2000000BF10
:1012800002885206FCD545F20042C4F20002B2F8D0
:101290001004B2F8003400290CBF23F4806143F439
:1012A0008061A2F80014C0B2704745F20042C4F257
:1012B000000200BF908A4006FCD5108A1388C0B295
:1012C000002914BF43F4806123F4806111807047CA
:1012D00001280DD0E8B945F20040C4F200000188B1
:1012E00041F48071018000BF818AC907FCD010E001
:1012F00045F20040C4F20000B0F8001441F48071DF
:10130000A0F8001445F61400C4F200000188C907D3
:10131000FCD001207047000001280AD098B945F29E
:101320000040C4F20000018841F4007101800120F6
:10133000704745F20040C4F20000B0F8001441F4D8
:101340000071A0F80014012070470000F0B581B0D2
:101350000D460446FFF7BCFF20464E210022FFF752
:10136000D9FE20460821FFF70DFF2046FFF7D4FFE6
:101370000A20FFF7EDFD2046FFF7AAFF20464E2189
:101380000022FFF7C7FE20460C21FFF7FBFE204698
:10139000FFF7C2FF0520FFF7DBFD05F0F007204651
:1013A00007F10C06FFF794FF20464E210022FFF7BD
:1013B000B1FE20463146FFF7E5FE2046FFF7ACFFC1
:1013C0000A20FFF7C5FD204607F10806FFF780FF5A
:1013D00020464E210022FFF79DFE20463146FFF7B2
:1013E000D1FE2046FFF798FF1420FFF7B1FD2046FD
:1013F000FFF76EFF20464E210022FFF78BFE2046AE
:101400000C21FFF7BFFE2046FFF786FF0520FFF700
:101410009FFD2D01204605F10C06FFF759FF2046E0
:101420004E210022FFF776FEF1B22046FFF7AAFE1A
:101430002046FFF771FF0A20FFF78AFD2046083596
:10144000FFF746FF20464E210022FFF763FEE9B278
:101450002046FFF797FE204601B0BDE8F040FFF7B9
:101460005BBF0000F0B581B00D460446FFF730FFCA
:1014700020464E210022FFF74DFE20460921FFF7AE
:1014800081FE2046FFF748FF0A20FFF761FD204656
:10149000FFF71EFF20464E210022FFF73BFE2046AD
:1014A0000D21FFF76FFE2046FFF736FF0520FFF7FF
:1014B0004FFD05F0F007204607F10D06FFF708FF86
:1014C00020464E210022FFF725FE20463146FFF739
:1014D00059FE2046FFF720FF0A20FFF739FD20467E
:1014E00007F10906FFF7F4FE20464E210022FFF720
:1014F00011FE20463146FFF745FE2046FFF70CFF60
:101500001420FFF725FD2046FFF7E2FE20464E217E
:101510000022FFF7FFFD20460D21FFF733FE204696
:10152000FFF7FAFE0520FFF713FD2D01204605F118
:101530000D06FFF7CDFE20464E210022FFF7EAFD03
:10154000F1B22046FFF71EFE2046FFF7E5FE0A2017
:10155000FFF7FEFC20460935FFF7BAFE20464E2174
:101560000022FFF7D7FDE9B22046FFF70BFE204629
:1015700001B0BDE8F040FFF7CFBE000010B52D214F
:101580000446FFF725FE1420FFF7C0FC2046FFF7B6
:101590009FFE20464E210022FFF7BCFD2046082179
:1015A000FFF7F0FD2046FFF7B7FE0A20FFF7D0FC5B
:1015B0002046FFF78DFE20464E210022FFF7AAFDB0
:1015C00020460C21FFF7DEFD2046FFF7A5FE052093
:1015D000FFF7BEFC2046FFF77BFE20464E2100228F
:1015E000FFF798FD20463C21FFF7CCFD2046FFF792
:1015F00093FE0A20FFF7ACFC2046FFF769FE204669
:101600004E210022FFF786FD20463821FFF7BAFD64
:101610002046FFF781FE0120FFF778FC2046FFF708
:1016200057FE20464E210022FFF774FD2046082178
:10163000FFF7A8FD2046FFF76FFE0A20FFF788FCA2
:101640002046FFF745FE20464E210022FFF762FDAF
:1016500020460C21FFF796FD2046FFF75DFE052092
:10166000FFF776FC2046FFF733FE20464E2100228E
:10167000FFF750FD20463C21FFF784FD2046FFF791
:101680004BFE0A20FFF764FC2046FFF721FE2046B0
:101690004E210022FFF73EFD20463821FFF772FD64
:1016A0002046FFF739FE0120FFF730FC2046FFF708
:1016B0000FFE20464E210022FFF72CFD2046082178
:1016C000FFF760FD2046FFF727FE0A20FFF740FCEA
:1016D0002046FFF7FDFD20464E210022FFF71AFDB0
:1016E00020460C21FFF74EFD2046FFF715FE052092
:1016F000FFF72EFC2046FFF7EBFD20464E2100228F
:10170000FFF708FD20463C21FFF73CFD2046FFF790
:1017100003FE0A20FFF71CFC2046FFF7D9FD2046F8
:101720004E210022FFF7F6FC20463821FFF72AFD64
:101730002046FFF7F1FD0120FFF7E8FB2046FFF709
:10174000C7FD20464E210022FFF7E4FC2046082179
:10175000FFF718FD2046FFF7DFFD0A20FFF7F8FB33
:101760002046FFF7B5FD20464E210022FFF7D2FCB0
:1017700020460C21FFF706FD2046FFF7CDFD052092
:10178000FFF7E6FB2046FFF7A3FD20464E2100228F
:10179000FFF7C0FC20462C21FFF7F4FC2046FFF7A2
:1017A000BBFD0A20FFF7D4FB2046FFF791FD204642
:1017B0004E210022FFF7AEFC20462821FFF7E2FC75
:1017C0002046FFF7A9FD20462C21FFF7BFFD05208D
:1017D000FFF79CFB20460C21FFF7B8FD0520FFF723
:1017E00095FB20460121FFF7B1FD0520FFF78EFB99
:1017F00020460221FFF7AAFD0520BDE81040FFF7B3
:1018000085BB0000B0B504466FF07F00022908BF19
:101810006FF03F001044C1B220461D46FFF796FD11
:101820006420FFF795FB2878002808BFB0BD013D74
:10183000C1B22046FFF716FE6420FFF789FBA878A7
:1018400001350028F4D1B0BD8EB000F09FF8002023
:10185000FFF794FE00200121FFF778FD3220FFF70B
:1018600055FB35A3002001210022FFF7CBFF01200B
:10187000FFF71AF94FF47A70FFF748FB32A3002004
:1018800001210022FFF7BEFF4FF47A70FFF73EFB05
:1018900000200121FFF75AFD3220FFF737FB0DF141
:1018A00034080DF130090DF12C0A0FF2B00B03AC26
:1018B0002EA532A6012041464A465346FFF79CF921
:1018C0000D9800F0C3FD03460F46204620215A46DE
:1018D000CDE90037FEF79AFC0020012100222346C3
:1018E000FFF790FF0C9800F0B1FD03460F4620462D
:1018F00020212A46CDE90037FEF788FC002002218E
:1019000000222346FFF77EFF0B9800F09FFD034661
:101910000F46204620213246CDE90037FEF776FCFF
:10192000002002210A222346FFF76CFF4FF47A7051
:10193000FFF7ECFABEE700BF496E697420414458D6
:101940004C3334352E2E2E004144584C3334352040
:10195000496E697469616C697A656400583A20253A
:101960002E3266206D2F73B200000000593A2025F8
:101970002E3266206D2F73B2000000005A3A2025E7
:101980002E3266206D2F73B2000000004EF2100060
:10199000CEF20000002140F2000272B60160C2F2F5
:1019A000000212684DF68363C4F21B33A2FB0323CB
:1019B0009A0C42604EF62352CEF20002F0231370CE
:1019C00081600721016062B670475FEA400C08BF82
:1019D00091F0000F4FEA8C234FEAC12243EA5151A4
:1019E0004FEA1C5018BF00F5F0404FEA300018BF16
:1019F00041F000415FEA6C5C00F02980BCF1FF3FE0
:101A000008BF40F080407047130C06BF12044FF02F
:101A1000100C4FF0000C130E04BF12020CF1080C56
:101A2000130F04BF12010CF1040C930F04BF9200BA
:101A30000CF1020CD30F04BF52000CF1010C114643
:101A40004FF00002A0F11F00A0EB0C00704711F056
:101A5000004F08BF704731F000413FF4D5AF0B0C89
:101A600006BF09044FF0100C4FF0000C0B0E04BF22
:101A700009020CF1080C0B0F04BF09010CF1040C56
:101A80008B0F04BF89000CF1020CCB0F04BF49007F
:101A90000CF1010CCCF1200322FA03F341EA03011B
:101AA00002FA0CF2A0EB0C0000F1010070470000FC
:101AB00023F07F4720F07F4C80EA030000F00040D5
:101AC000ACEB070303F57C5303F1FF032DE98049D9
:101AD00009B44FEA144324EA03484FEA154B25EAB8
:101AE0000B4E0FF2042606EB13273E7803FB066726
:101AF000C7F5000707FB06F64FEAD64606F10206D1
:101B00004FEA543707FB066CCCF1005C4FEA1C47E8
:101B10002CEA074C0CFB06F507FB06F404EB154614
:101B20004FEA961649085FEA320234BF00204FF0B0
:101B300000404FEAD13706FB07FC4FEA1C4C0CFB78
:101B40000BF7D21B03FB0CF761EB07010CFB0EF745
:101B5000B0EB074072EB17420CFB08F734BFA2EB67
:101B60000742B2EB074261EB17414FEA0C444FEAE0
:101B7000910706FB07FC4FEA1C4C0CFB0BF7B0EB84
:101B8000C74072EB573203FB0CF734BFA2EBC742DE
:101B9000B2EBC74261EB57310CFB0EF7B0EBC7005D
:101BA00072EB57720CFB08F734BFA2EBC702B2EB23
:101BB000C70261EB57714FEA816141EA92114FEA26
:101BC000826242EA90124FEA806004EBCC04039FE9
:101BD0004FEAD13706FB07FC4FEA1C4C0CFB0BF716
:101BE000D21B03FB0CF761EB07010CFB0EF7B0EB0C
:101BF000074072EB17420CFB08F734BFA2EB074219
:101C0000B2EB074261EB17414FEA8C5504EB9C2481
:101C10004FEA910706FB07FC4FEA1C4C0CFB0BF745
:101C2000B0EBC74072EB573203FB0CF734BFA2EBAB
:101C3000C742B2EBC74261EB57310CFB0EF7B0EB7A
:101C4000C70072EB57720CFB08F734BFA2EBC70258
:101C5000B2EBC70261EB57714FEA816141EA921121
:101C60004FEA826242EA90124FEA806015EB4C25FF
:101C700044F100044FEAD13706FB07FC4FEA1C4C45
:101C80000CFB0BF7D21B03FB0CF761EB07010CFB02
:101C90000EF7B0EB074072EB17420CFB08F734BFAE
:101CA000A2EB0742B2EB074261EB17414FEA8131E9
:101CB00041EA92414FEA823242EA90424FEA803052
:101CC0004FEA0C7615EB1C1544F1000448EA034377
:101CD0004EEA0B484FF0000EB2EB080C71EB030715
:101CE00024BF624639464EEB0E0E4FF0000B001833
:101CF000524149414BEB0B0BB2EB080C71EB030764
:101D00007BF1000B24BF624639464EEB0E0E4FF0BE
:101D1000000B0018524149414BEB0B0BB2EB080C86
:101D200071EB03077BF1000B24BF624639464EEB93
:101D30000E0E51EA020718BF46F0010616EB0E76AA
:101D400055F1000254F1000103D5BDE88901BDE859
:101D50000088BDE88901BDE80048B619524141EB51
:101D60000101A3F10103704780807F7E7D7C7B7A37
:101D70007978777676757473727171706F6E6E6D37
:101D80006C6C6B6A6A6968686766666564646363DD
:101D900062616160605F5F5E5E5D5D5C5C5B5B5A63
:101DA0005A595958585757565655555554545353D0
:101DB00052525251515050504F4F4F4E4E4D4D4D2B
:101DC0004C4C4C4B4B4B4A4A4A4949494848484776
:101DD00047474746464645454544444444434343B4
:101DE00043424242424141419C46002B30D477005D
:101DF0002BD04FEA37071CB503B44FF010004FF05B
:101E00001001BAF1000F06D0BCF1000FDCBF40F0AA
:101E1000080040F008014FF000000FBCBDE8104082
:101E20000BF1010BBBF1010F08BF5FEA170722BFDF
:101E300012F1010211F101014FF0004143F10003E1
:101E400000F0004043EA00007047F9D35708D0E79C
:101E500046EA06464FEA164613F1400F1FDD13F11E
:101E6000200FDFBF16430A46002120335B42BED05D
:101E7000C3F1200746EA06464FEA164602FA07F77C
:101E800046EA070622FA03F2C3F1200701FA07F730
:101E900042EA070221FA03F14FF00003A7E746EAFE
:101EA000020646EA06464FEA164646EA0106BCBF67
:101EB00046EA0646360C4FF000034FF000024FF0A2
:101EC000000194E72DE9804C70B49A46934691E85E
:101ED000380007C831EA400C48BF34EA430C03D548
:101EE000FFF7E6FDFFF780FFF0BCBDE8008C2DE9B1
:101EF000804C70B49A46934691E8380007C810F0B9
:101F0000804F08BF13F0804F03D100F005F8FFF7B2
:101F10006BFFF0BCBDE8008C20F07F4723F07F4CC6
:101F200080EA030000F0004007EB0C03A3F57C53AC
:101F3000A3F1FE0392F0000F00F0B38095F0000FC4
:101F400000F077802DE901494FEA114021EA00486D
:101F50004FEA144624EA064700FB06FC08FB06F697
:101F600007FB08F818EB06484CEB164C00FB07F78C
:101F700018EB07484CEB17404FEA124B22EA0B4E86
:101F80004FEA154625EA06470BFB06FC0EFB06F654
:101F900007FB0EFE1EEB064E4CEB164C0BFB07F739
:101FA0001EEB074E4CEB174B18EB0B0840F10000F3
:101FB00018EB0E0B58EB000840F100008F1A4FF0A1
:101FC00000014FF000063CBFC943661B14BFB5EBD0
:101FD000040C00213CBFC943F61B4FEA174427EA13
:101FE00004454FEA1C472CEA074C04FB076205FB3B
:101FF00007F70CFB05F616EB074642EB174204FB0E
:102000000CFC16EB0C4642EB1C421BEB060658EB95
:10201000020241414EEA8E0E46EA9E0601D5BDE817
:102020000189B619524141EB0101A3F10103BDE859
:1020300001894FEA144524EA05464FEA114721EA8F
:10204000074C05FB07F406FB07F70CFB06F111EB49
:10205000074144EB174405FB0CFC11EB0C4144EB2E
:102060001C444FEA124722EA074C05FB07F206FB25
:1020700007F70CFB06F616EB074642EB174205FB8B
:102080000CFC16EB0C4642EB1C456A1854F100019F
:1020900048BF7047B619524141EB0101A3F101035A
:1020A000704795F0000F37D04FEA114221EA0246FF
:1020B0004FEA144724EA074C02FB07F106FB07F737
:1020C0000CFB06F414EB074441EB174102FB0CFC3C
:1020D00014EB0C4441EB1C414FEA154725EA074C31
:1020E00002FB07F506FB07F70CFB06F616EB0746A7
:1020F00045EB174502FB0CFC16EB0C4645EB1C426E
:10210000121951F1000148BF7047B619524141EB15
:102110000101A3F1010370474FEA144524EA054683
:102120004FEA114721EA074C05FB07F106FB07F7C9
:102130000CFB06F212EB074241EB174105FB0CFCCE
:1021400012EB0C4251EB1C414FF0000648BF7047A8
:10215000921841EB0101A3F101037047490050EAD5
:10216000C12018BF04204A0D18BF40F0010040F202
:10217000FF72B2EB515F08BF40F00200012808BFB8
:102180000520704730380A2801D20120704700200E
:102190007047000010B500290AD00878002807D041
:1021A00005487844FEF738FC002801D0002010BD17
:1021B0000248784410BD00004E04000046040000B0
:1021C00021F0004201F00043A2F16052B2F5801FFD
:1021D00028BFD2F17F6C0BD95FEA001C43EAC20230
:1021E00042EB507018BF704728BF20F001007047C5
:1021F000B2F5801FBCBF184670474FEA410C1CF572
:10220000001F02D2084600F092B970B500F0CAF87B
:1022100000000089FFF7F6BF4FF00040A0F58000F6
:10222000704710F0004248BF4042B0FA80F310FA05
:1022300003F10AD0C3F11D0303F5806302EB0352DF
:102240004FEA415002EBD12170474FF00000704738
:1022500070B5DFF848C11CEA111E1EBF1CEA131539
:102260009EEA0C0F95EA0C0F00F06F8081EA0304E0
:102270004EEAD47EAE4421EA4C1123EA4C1341F4D9
:10228000801143F48013AEF17F7EA1FB024CA0FBD2
:102290000365361955EB0C05A1FB034C4CF100030B
:1022A000A0FB021C16EB0C06654153F1000309422A
:1022B00018BF46F0010613F4007F0BD14FEA03313B
:1022C0004FEA053041EA155140EA165034036FF0E9
:1022D00003020AE04FEAC3214FEAC52041EA555103
:1022E00040EA5650F4026FF0020202EB2E4201EB7C
:1022F000025585EACE710AD05FEA440C18BF24F07B
:10230000004450F1000041F1000120EAD47040F295
:10231000FE7C624500D270BDA84214BF4FF08044DD
:102320004FF04044002E08BF0024BEF1806FA8BFCC
:10233000A1F1C041BDE8704080F2828001F1C0414E
:1023400001F000414FF0000070470CEA13159EEABF
:102350000C0F18BF95EA0C0F06D081EA030E4FF060
:1023600000000EF0004170BD00F01CF88900013E35
:1023700000F007B800F009B84FEA430C5FEA5C5C74
:1023800008D081EA030100F05BB84FEA410C5FEA34
:102390005C5CF6D102494FF0000070470000FF0777
:1023A0000000F87F0EF1020E2EF0030E5EF8046BB3
:1023B000364205D4012A43EB030515F5001F12D858
:1023C000012841EB010C1CF5001F0CD80ED14FEA7F
:1023D000D17C0CEB4C0C0CF1020C15F5001F08BF66
:1023E0004CEBD37C04E04FF0080C01E04FEAD37CC7
:1023F0000CEB4C0526FA05F606F00706B6F1040CC0
:1024000006D20EEB860CBDE870404CF0010C604724
:10241000DFE80CF0090B02024FF00041A1F50021AA
:102420004FF0000070BD19461046012851EB010421
:1024300018BFD4F5001484BF002001F0004170BD26
:102440000808A0F500114FEA3101704743004FEA38
:10245000D30C4FEA3C0C43401FBF40070CF16051C6
:1024600013F0FE4F70471CF0006F03D10CF00041D9
:10247000002070470CF0004343EA507040EACC0063
:1024800010B500F00EF800BF000000924FEA000106
:10249000FFF7D6BF4FF00041A1F500214FF000003B
:1024A00070470EF1020E2EF0030E5EF8044B24422C
:1024B00004D44FEA4102B2F17F4F11D84FEA4003F2
:1024C000B3F17F4F0CD80ED14FEAD07C0CEB4C0C03
:1024D0000CF1020CB2F17F4F08BF4CEBD17C04E051
:1024E0004FF0080C01E04FEAD17C0CEB4C0324FACE
:1024F00003F404F00704B4F1040C06D20EEB840CD0
:10250000BDE810404CF0010C6047DFE80CF0070814
:1025100002024FF00040A0F5800010BD08464200C6
:1025200018BFD2F1807288BF00F0004010BDFF21BB
:1025300041EAD050C0057047FDF7EABF02400000F5
:10254000000000A00000000005400000000000C8DE
:10255000000000000C4000000000409C0000000053
:10256000194000000020BCBE000000003440000004
:10257000BFC91B8E00000004B5400000504BCFD0F7
:102580006607E2CF010000006C4100003E8251AAC4
:10259000DFEEA73401000000D9420000DCB5A0E264
:1025A0003A301F97FFFFFFFFB4450000FD25A0C88C
:1025B000E9A3C14FFFFFFFFFFF3F000000000080C5
:1025C00000000000FF3F000000000080000000004D
:1025D0000C26000800000020040000005001000844
:1025E000102600080800002068060000700100089E
:1025F0001C00000043000000F8FFFFFF0C0000007B
:102600000E0000000F0000002E00000000A24A048F
:04000005080001CD21
:00000001FF
