:020000040800F2
:1000000088060020B5010008BD010008BF010008F6
:10001000C1010008C3010008C5010008000000007C
:10002000000000000000000000000000C701000800
:10003000C901000800000000CB01000811070008FA
:10004000CF010008CF010008CF010008CF01000850
:10005000CF010008CF010008B1060008D90600084A
:10006000CF010008CF010008CF010008CF01000830
:10007000CF010008CF010008CF010008CF01000820
:10008000CF010008CF010008CF010008CF01000810
:10009000CF010008CF010008CF010008CF01000800
:1000A000CF010008CF010008CF010008CF010008F0
:1000B000CF010008CF010008CF010008CF010008E0
:1000C000CF010008CF010008CF010008CF010008D0
:1000D000CF010008CF010008CF010008CF010008C0
:1000E000CF010008CF010008CF01000800F002F89E
:1000F00000F050F814A696E8000CB244B344DA4578
:1001000001D100F047F8BAE80F000FA696E83000DA
:10011000A5EB040504EB0607AAEB0704A7F101070A
:100120004FEA15154FEA3414A4F10104AC4201D38F
:1001300000F030F813F0010F18BFFB1A43F0010371
:1001400000F001F8DBE718476C1C00008C1C000075
:10015000103A24BF78C878C1FAD8520724BF30C8F3
:1001600030C144BF04680C60704700007047000055
:100170000023002400250026103A28BF78C1FBD8B0
:10018000520728BF30C148BF0B6070471FB51FBD65
:1001900010B510BD00F044F81146FFF7F7FF00F06E
:1001A000EDFF00F062F803B4FFF7F2FF03BC00F0CC
:1001B00065F800000948804709480047FEE7FEE768
:1001C000FEE7FEE7FEE7FEE7FEE7FEE7FEE7FEE707
:1001D00004480549054A064B7047000035070008EA
:1001E000ED0000088800002088060020880200201A
:1001F0008802002070477047704710B500F008F87B
:10020000006810BD10B5044600F002F8046010BD8F
:100210000048704710000020004870471000002080
:100220007546FFF7F9FFAE4605006946534620F0D4
:100230000700854618B020B5FFF7CAFFBDE820408B
:100240004FF000064FF000074FF000084FF0000B92
:10025000AC46ACE8C009ACE8C009ACE8C009ACE801
:10026000C00921F007018D46704710B50446AFF371
:1002700000802046BDE81040FFF795BF01491820D7
:10028000ABBEFEE7260002007047000010B5044632
:100290000020012100F0F4FC20462D2100F032FC6A
:1002A0004FF4FA7000F0CEFA41A3002001210022A1
:1002B00000F042FF4FF4FA7000F0C4FA0020012170
:1002C00000F0DEFC4FF4FA7000F0BCFA3DA3002011
:1002D0000121002200F030FF4FF4FA7000F0B2FA72
:1002E0000020012100F0CCFC204600F08BFC2046D1
:1002F000A621002200F0A8FB20462D2100F0DCFB07
:100300002046082100F0D8FB204600F09FFC4FF467
:10031000FA7000F097FA30A300200121002200F0CB
:100320000BFF4FF47A7000F08DFA0020012100F0ED
:10033000A7FC204600F066FC2046A621002200F023
:1003400083FB2046312100F0B7FB2046082100F056
:10035000B3FB204600F07AFC4FF4FA7000F072FA1A
:1003600022A300200121002200F0E6FE4FF47A7063
:1003700000F068FA0020012100F082FC204600F025
:1003800041FC2046A621002200F05EFB20462C21E5
:1003900000F092FB20460A2100F08EFB204600F080
:1003A00055FC4FF47A70BDE8104000F04BBA00BF26
:1003B0004144584C33343520496E6974205374617C
:1003C0007274000053657474696E6720506F7765AE
:1003D00072204374726C000053657474696E6720F8
:1003E0004461746120466F726D617400536574746A
:1003F000696E672044617461205261746500000079
:100400002DE9F04F83B0CDE901238B46074600F07C
:10041000F9FB3846A621002200F016FB38463221AF
:1004200000F04AFB384600F0EDFB3846A6210122D9
:1004300000F00AFB3846002100F0B4FB8246384643
:1004400000F004FC384600F0DDFB3846A62100220F
:1004500000F0FAFA3846332100F02EFB384600F05F
:10046000D1FB3846A621012200F0EEFA38460021E1
:1004700000F098FB0446384600F0E8FB384600F0F0
:10048000C1FB3846A621002200F0DEFA38463421AE
:1004900000F012FB384600F0B5FB3846A6210122D9
:1004A00000F0D2FA3846002100F07CFB05463846C1
:1004B00000F0CCFB384600F0A5FB3846A621002210
:1004C00000F0C2FA3846352100F0F6FA384600F05E
:1004D00099FB3846A621012200F0B6FA38460021E1
:1004E00000F060FB0646384600F0B0FB384600F0EE
:1004F00089FB3846A621002200F0A6FA38463621AC
:1005000000F0DAFA384600F07DFB3846A6210122D9
:1005100000F09AFA3846002100F044FB8046384645
:1005200000F094FB384600F06DFB3846A62100220F
:1005300000F08AFA3846372100F0BEFA384600F05B
:1005400061FB3846A621012200F07EFA38460021E0
:1005500000F028FB8146384600F078FB4AEA042088
:1005600000B245EA062A48EA092701F010F80024FB
:10057000C3F670740022234601F020F84AF20535D4
:1005800049F60156C3F69225C4F223062A4633469D
:1005900001F014F800F0CAFFCBF800000FFA8AF05F
:1005A000CDF800B000F0F3FF0022234601F006F87A
:1005B0002A46334601F002F800F0B8FFDDF804A047
:1005C000CAF8000038B200F0E2FF0022234600F033
:1005D000F5FF2A46334600F0F1FF00F0A7FF029F27
:1005E00040F204083860C2F20008DDF83090D8F814
:1005F0000050D9F800404FF07E50294601F064FBCE
:10060000DBF8001001F00CFA06462046294601F0FE
:1006100007FA314601F0D0F8C9F80000DDF834B02F
:10062000D8F80050DBF800404FF07E50294601F02A
:100630004BFBDAF8001001F0F3F906462046294694
:1006400001F0EEF9314601F0B7F8CBF80000DDF823
:100650003890D8F80050D9F800404FF07E50294625
:1006600001F032FB396801F0DBF9064620462946E5
:1006700001F0D6F9314601F09FF8009C0C99C9F8B9
:1006800000002068096801F01FFB2060DAF8000014
:10069000DBF8001001F018FBCAF800003868D9F840
:1006A000001001F011FB386003B0BDE8F08F0000CE
:1006B00040F21440C4F201000168C90708BF704746
:1006C00040F27D01C2F200010A78B2FA82F25209C8
:1006D0000A7001210160704740F21440C4F2010029
:1006E0000168890758BF704740F27D01C2F20001DE
:1006F00001220A7040F27C01C2F2000100230B705B
:1007000040F20801C2F200010A7002210160704744
:1007100040F28000C2F20000016842F6000201319E
:1007200001600168CEF66B62914224BF0021016036
:100730007047000082B041F20400C4F2020050F899
:10074000041C002241F0010140F8041C0168CFF6AE
:10075000FF021140016050F8041C4FF6FF72CFF603
:10076000F662114040F8041C50F8041C21F480216A
:1007700040F8041C016821F4FE0101604FF41F01E0
:10078000416000210191009150F8041C41F4803136
:1007900040F8041C50F8041C01F400310091019948
:1007A00001310191009919B90199B1F5A06FF1D109
:1007B00050F8041C890354BF0021012100910099C5
:1007C000012936D142F20001C4F202010A6842F066
:1007D00010020A600A6822F007020A600A6842F002
:1007E00002020A600168016001680160016841F469
:1007F00080610160016821F47C110160016841F4AD
:10080000E811016050F8041C41F0807140F8041CAC
:1008100050F8041C8901FBD5016821F00301016037
:10082000016841F002010160016801F00C01082932
:10083000FAD14EF60850CEF200004FF00061016090
:1008400002B0704740F2800CC2F2000CDCF80020CD
:100850004FF47A73434300BFDCF80010891A9942C1
:10086000FAD380B140F6A902C0F6000203E000BF4F
:10087000013808BF7047DCF80010511AC9087C29FC
:10088000F6D800BFFEE7704740F28001C2F20001D7
:10089000096840F6A902C0F60002511A814228BF39
:1008A000704700BFFEE7000040F28000C2F2000087
:1008B00000687047B0B503284ED0022824D0012824
:1008C00018BFB0BD41F2180CC4F2020CDCF80000F5
:1008D000072940F00400CCF800004FEA810063D8FB
:1008E00040F60004C4F201044FF00F0CD4F800E00D
:1008F0000CFA00F12EEA01012160216883401943BE
:1009000040F0020021607EE041F21800C4F20200D3
:100910000568072945F0080505604FEA81005DD8A4
:1009200040F60005C4F201050F21D5F800448140CE
:1009300024EA0101C5F80014D5F8001483401943D6
:10094000C5F8001440F00200D5F8001402FA00F0D7
:100950000843C5F80004B0BD41F21805C4F2020511
:100960002C6840F60440C4F2010044F0100407294A
:100970004FEA81012C604CD80F25D0F8FC438D4004
:1009800024EA0505C0F8FC53D0F8FC538B402B43F8
:10099000C0F8FC3341F00201D0F8FC3302FA01F157
:1009A0001943C0F8FC13B0BD40F60004C4F20104C2
:1009B000A0F120054FF00F0CD4F804E00CFA05F17B
:1009C0002EEA010161606168AB40194361601E3825
:1009D000616802FA00F008436060B0BD40F604446C
:1009E000C4F20104A0F120014FF00F0CD4F800E094
:1009F0000CFA01F52EEA05052560256803FA01F1D8
:100A0000294321601E38216802FA00F00843206063
:100A1000B0BDA1F120054FF00F0CD0F800E40CFAA6
:100A200005F42EEA0404C0F80044D0F80044AB40BA
:100A30002343C0F800341E39D0F8003402FA01F123
:100A40001943C0F80014B0BD81B0012817D078BB9D
:100A500045F21440C4F20000114320F8041C00BF0A
:100A600001888907FCD506E0018800918188009102
:100A7000018889071CD501888907F5D418E045F657
:100A80001400114345F21442C4F20000C4F2000203
:100A9000A2F8FC1301888907FCD506E001880091C3
:100AA000818800910188890702D501888907F5D4DA
:100AB000012001B070470000A0B101281FD145F608
:100AC0001400C4F2000000BF02881206FCD545F2F3
:100AD0001442C4F20002A2F8FC1300BF0188090608
:100AE000FCD50CE045F21440C4F200000288120666
:100AF000FCD520F8041C00BF01880906FCD50120A4
:100B00007047000010B50C4641F21C01C4F202010E
:100B100051F8042C012842F0010241F8042C1DD0A8
:100B2000E8BB0868032240F4001008600220062198
:100B30000323FFF7BFFE0220072103220323FFF751
:100B4000B9FE45F20040C4F2000008218180848390
:100B5000018841F001010180012010BD08680322D5
:100B600040F48000086002200A210323FFF7A2FE60
:100B700002200B2103220323FFF79CFE45F604000D
:100B8000C4F2000008210180048345F20040C4F251
:100B90000000B0F8001441F00101A0F80014012099
:100BA00010BD0000D8B1012817D145F61400C4F2D9
:100BB000000000BF02885206FCD545F20042C4F294
:100BC0000002B2F81004B2F8003400290CBF23F47C
:100BD000806143F48061A2F80014C0B2704745F20E
:100BE0000042C4F2000200BF908A4006FCD5108A81
:100BF0001388C0B2002914BF43F4806123F48061DC
:100C00001180704701280DD0E8B945F20040C4F2C8
:100C10000000018841F48071018000BF818AC9070A
:100C2000FCD010E045F20040C4F20000B0F800141F
:100C300041F48071A0F8001445F61400C4F20000DD
:100C40000188C907FCD001207047000001280AD0A4
:100C500098B945F20040C4F20000018841F40071E7
:100C600001800120704745F20040C4F20000B0F856
:100C7000001441F40071A0F8001401207047000036
:100C8000F0B581B00D460446FFF7BCFF20464E216B
:100C90000022FFF7D9FE20460821FFF70DFF20466E
:100CA000FFF7D4FF0A20FFF7EFFD2046FFF7AAFF6A
:100CB00020464E210022FFF7C7FE20460C21FFF7F9
:100CC000FBFE2046FFF7C2FF0520FFF7DDFD05F024
:100CD000F007204607F10C06FFF794FF20464E214F
:100CE0000022FFF7B1FE20463146FFF7E5FE204621
:100CF000FFF7ACFF0A20FFF7C7FD204607F1080603
:100D0000FFF780FF20464E210022FFF79DFE204680
:100D10003146FFF7D1FE2046FFF798FF1420FFF77A
:100D2000B3FD2046FFF76EFF20464E210022FFF75D
:100D30008BFE20460C21FFF7BFFE2046FFF786FF03
:100D40000520FFF7A1FD2D01204605F10C06FFF758
:100D500059FF20464E210022FFF776FEF1B22046D1
:100D6000FFF7AAFE2046FFF771FF0A20FFF78CFD70
:100D700020460835FFF746FF20464E210022FFF7A8
:100D800063FEE9B22046FFF797FE204601B0BDE8BA
:100D9000F040FFF75BBF0000F0B581B00D460446A0
:100DA000FFF730FF20464E210022FFF74DFE204680
:100DB0000921FFF781FE2046FFF748FF0A20FFF7D1
:100DC00063FD2046FFF71EFF20464E210022FFF75D
:100DD0003BFE20460D21FFF76FFE2046FFF736FF52
:100DE0000520FFF751FD05F0F007204607F10D063D
:100DF000FFF708FF20464E210022FFF725FE204680
:100E00003146FFF759FE2046FFF720FF0A20FFF783
:100E10003BFD204607F10906FFF7F4FE20464E2170
:100E20000022FFF711FE20463146FFF745FE20461F
:100E3000FFF70CFF1420FFF727FD2046FFF7E2FE27
:100E400020464E210022FFF7FFFD20460D21FFF72F
:100E500033FE2046FFF7FAFE0520FFF715FD2D01B2
:100E6000204605F10D06FFF7CDFE20464E2100225B
:100E7000FFF7EAFDF1B22046FFF71EFE2046FFF71E
:100E8000E5FE0A20FFF700FD20460935FFF7BAFE10
:100E900020464E210022FFF7D7FDE9B22046FFF79A
:100EA0000BFE204601B0BDE8F040FFF7CFBE0000CA
:100EB00010B52D210446FFF725FE1420FFF7C2FCD4
:100EC0002046FFF79FFE20464E210022FFF7BCFD83
:100ED00020460821FFF7F0FD2046FFF7B7FE0A2065
:100EE000FFF7D2FC2046FFF78DFE20464E21002260
:100EF000FFF7AAFD20460C21FFF7DEFD2046FFF795
:100F0000A5FE0520FFF7C0FC2046FFF77BFE20462C
:100F10004E210022FFF798FD20463C21FFF7CCFD33
:100F20002046FFF793FE0A20FFF7AEFC2046FFF7AE
:100F300069FE20464E210022FFF786FD204638211B
:100F4000FFF7BAFD2046FFF781FE0120FFF77AFC8C
:100F50002046FFF757FE20464E210022FFF774FD82
:100F600020460821FFF7A8FD2046FFF76FFE0A2064
:100F7000FFF78AFC2046FFF745FE20464E2100225F
:100F8000FFF762FD20460C21FFF796FD2046FFF794
:100F90005DFE0520FFF778FC2046FFF733FE204674
:100FA0004E210022FFF750FD20463C21FFF784FD33
:100FB0002046FFF74BFE0A20FFF766FC2046FFF7AE
:100FC00021FE20464E210022FFF73EFD204638211B
:100FD000FFF772FD2046FFF739FE0120FFF732FCD4
:100FE0002046FFF70FFE20464E210022FFF72CFD82
:100FF00020460821FFF760FD2046FFF727FE0A2064
:10100000FFF742FC2046FFF7FDFD20464E2100225F
:10101000FFF71AFD20460C21FFF74EFD2046FFF793
:1010200015FE0520FFF730FC2046FFF7EBFD2046BC
:101030004E210022FFF708FD20463C21FFF73CFD32
:101040002046FFF703FE0A20FFF71EFC2046FFF7AD
:10105000D9FD20464E210022FFF7F6FC204638211C
:10106000FFF72AFD2046FFF7F1FD0120FFF7EAFB1D
:101070002046FFF7C7FD20464E210022FFF7E4FC83
:1010800020460821FFF718FD2046FFF7DFFD0A2064
:10109000FFF7FAFB2046FFF7B5FD20464E21002260
:1010A000FFF7D2FC20460C21FFF706FD2046FFF794
:1010B000CDFD0520FFF7E8FB2046FFF7A3FD204606
:1010C0004E210022FFF7C0FC20462C21FFF7F4FC44
:1010D0002046FFF7BBFD0A20FFF7D6FB2046FFF7AF
:1010E00091FD20464E210022FFF7AEFC204628212C
:1010F000FFF7E2FC2046FFF7A9FD20462C21FFF771
:10110000BFFD0520FFF79EFB20460C21FFF7B8FD31
:101110000520FFF797FB20460121FFF7B1FD0520D1
:10112000FFF790FB20460221FFF7AAFD0520BDE84E
:101130001040FFF787BB0000B0B504466FF07F009A
:10114000022908BF6FF03F001044C1B220461D467F
:10115000FFF796FD6420FFF797FB2878002808BF6B
:10116000B0BD013DC1B22046FFF716FE6420FFF777
:101170008BFBA87801350028F4D1B0BD96B040F6BD
:101180000C08C4F2010800F099F900200024FFF7D0
:101190008FFE0120FFF77AF841F21800C4F2020036
:1011A0000168802341F00501016040F60000C4F2AF
:1011B0000100016821F0FF010160016841F0880130
:1011C0000160D8F8001041F00301C8F800104FF694
:1011D0000801CFF6FF71425822F0FF0242504258F8
:1011E00042504FF60041CFF6FF71425842F00302E1
:1011F00042504FF60841CFF6FF71425842F00302C9
:1012000042504EF20011CEF2000140220A604EF22E
:101210000642CEF2000214700B601021517001687A
:1012200021F07F610160016841F04C71016001684B
:1012300021F04C610160002001211294CDE910449D
:10124000FFF71EFD3220FFF7FDFA92A300200121D7
:101250000022FFF771FF4FF4FA70FFF7F3FA002056
:101260000121FFF70DFD90A14A6840F27D09079228
:101270008A6840F2080A0692CA68098A40F27C0B22
:101280004FF47A70C2F20009C2F2000AC2F2000BF7
:1012900008AF0592049103E04020C8F808006420DC
:1012A000FFF7D0FA00200121FFF7EAFC99F80000CF
:1012B000012843D112A8009011A80190012015A97E
:1012C00014AA13AB10AE0296FFF79AF8DDE913509B
:1012D000159C014600F0A4FB06462046214600F07E
:1012E0009FFB314600F068FA04462846294600F084
:1012F00097FB214600F060FA00F002F99AF800101E
:10130000044601292CD140F20C00C2F20000016811
:10131000204600F0D9FC002120F00040C4F27011FA
:1013200000F0C8FAE0B902208AF80000FFF7BCFA22
:1013300040F27801C2F20001086029E0002001219A
:10134000FFF79EFC0A20FFF77DFA46F27050C0F2CC
:101350006400099047F25340C7F26F004FE000BFAE
:101360009AF80000022813D120464FF07F5100F078
:101370009AFA68B9FFF798FA40F27801C2F20001D0
:101380000968401AB0F57A7F24BF03208AF800006C
:101390009AF80000032809D120464FF07E5100F052
:1013A00082FA002804BF01208BF8000040F20C00F4
:1013B000C2F20000046000200121FFF761FC9BF8ED
:1013C000000001280CD13848089007980990069829
:1013D0000A9005980B900498ADF8300010E000BF1B
:1013E00046F26D10C0F26C00CDF8270046F64E7044
:1013F000C6F67250099042F23000C2F22D000890F9
:101400000020012100223B46FFF796FEFFF74CFA31
:1014100099F800100129014618D140F27000C2F27B
:101420000000006844F24022081AC0F20F02904205
:101430000FD3D8F8000080F02000C8F8000040F278
:101440007000C2F20000016003E000BF2020C8F875
:1014500008009BF8000001287FF41EAF40F27400E2
:10146000C2F2000000684AF22012081AC0F2070215
:1014700090424FF06400FFF413AFD8F8000080F002
:101480004000C8F8000040F27400C2F200000160A1
:10149000642005E74144584C33343520496E697463
:1014A00069616C697A65640031202D2046616C6C3D
:1014B0002044657465637465640000004EF210009A
:1014C000CEF20000002140F2000272B60160C2F2CA
:1014D000000212684DF68363C4F21B33A2FB0323A0
:1014E0004FF0FF3202EB934242604EF62352CEF2AF
:1014F0000002F023137081600721016062B670471B
:1015000070B5054600F058FB044620F00040C0F1DD
:10151000FF40C00F08D025F00040C0F1FF40C00FD1
:1015200004BF0120FEF76EFE204670BD21F0004290
:1015300001F00043A2F16052B2F5801F28BFD2F142
:101540007F6C0BD95FEA001C43EAC20242EB507089
:1015500018BF704728BF20F001007047B2F5801F08
:10156000BCBF184670474FEA410C1CF5001F02D261
:10157000084600F01CBB70B500F0CAF800000089F6
:10158000FFF7F6BF4FF00040A0F58000704710F065
:10159000004248BF4042B0FA80F310FA03F10AD08B
:1015A000C3F11D0303F5806302EB03524FEA415080
:1015B00002EBD12170474FF00000704770B5DFF8A3
:1015C00048C11CEA111E1EBF1CEA13159EEA0C0F2F
:1015D00095EA0C0F00F06F8081EA03044EEAD47E96
:1015E000AE4421EA4C1123EA4C1341F4801143F438
:1015F0008013AEF17F7EA1FB024CA0FB0365361980
:1016000055EB0C05A1FB034C4CF10003A0FB021CA5
:1016100016EB0C06654153F10003094218BF46F072
:10162000010613F4007F0BD14FEA03314FEA053076
:1016300041EA155140EA165034036FF003020AE004
:101640004FEAC3214FEAC52041EA555140EA5650BE
:10165000F4026FF0020202EB2E4201EB025585EA22
:10166000CE710AD05FEA440C18BF24F0004450F158
:10167000000041F1000120EAD47040F2FE7C624596
:1016800000D270BDA84214BF4FF080444FF04044D8
:10169000002E08BF0024BEF1806FA8BFA1F1C04199
:1016A000BDE8704080F2828001F1C04101F000414C
:1016B0004FF0000070470CEA13159EEA0C0F18BF9C
:1016C00095EA0C0F06D081EA030E4FF000000EF0F1
:1016D000004170BD00F01CF88900013E00F007B821
:1016E00000F009B84FEA430C5FEA5C5C08D081EA7D
:1016F000030100F05BB84FEA410C5FEA5C5CF6D195
:1017000002494FF0000070470000FF070000F87F1B
:101710000EF1020E2EF0030E5EF8046B364205D475
:10172000012A43EB030515F5001F12D8012841EBF0
:10173000010C1CF5001F0CD80ED14FEAD17C0CEB2C
:101740004C0C0CF1020C15F5001F08BF4CEBD37CC0
:1017500004E04FF0080C01E04FEAD37C0CEB4C05A1
:1017600026FA05F606F00706B6F1040C06D20EEBD3
:10177000860CBDE870404CF0010C6047DFE80CF0CF
:10178000090B02024FF00041A1F500214FF00000CB
:1017900070BD19461046012851EB010418BFD4F55D
:1017A000001484BF002001F0004170BD0808A0F5BE
:1017B00000114FEA3101704790EA010F48BF81F0F4
:1017C000004100F18882421A3CBF801A89184FEA12
:1017D000D052A2EBD1534FF07F4C1CEA410F18BFFF
:1017E0009CEA026F00F03B804FF0004C4CEA002076
:1017F0004CEA012121FA03FC10EB0C0C1ED202F181
:10180000FF325FEA1C2040EBC25038BF70471CF02B
:101810007F0F4FEA400C18BFBCF17F4F38BF7047B5
:10182000C3F12003994008BF20F00100BCF17F4FB5
:1018300038BF7047A0F1C04000F0B9B94FEA3C0092
:10184000000A40EBC25028BF1CF0FF0F4FEA400CCB
:10185000E6D018BFBCF17F4F38BF7047EAE79CEA7B
:10186000026F05D010EA5C0F08BF00F0004070471F
:1018700010B500F056F900BF64FBBE3E10B500F095
:1018800033F80CBF0120002010BD10B500F02CF87B
:1018900014BF0120002010BD10B500F059F88CBF16
:1018A0000120002010BD10B500F052F82CBF01201F
:1018B000002010BD10B500F07FF894BF012000207B
:1018C00010BD10B500F078F834BF0120002010BD25
:1018D000401058BFC0F14040491058BFC1F14041CD
:1018E0008142EFF30080704750EA010C00F1138051
:1018F0001CF5000F58BFBCF5000F01D4884270479B
:1019000007D710F5000F58BF11F5000F15D4884206
:101910007047894270471CF5000F04D5BCF5000FD5
:10192000F7D5814270474FF0807C1CEB400F38BFE9
:101930001CEB410F01D28142704710B500F0F1F865
:10194000922449004FF000504FF08051FFF7C0BF84
:1019500050EA010C00F113801CF5000F58BFBCF5D4
:10196000000F01D48842704707D710F5000F58BF09
:1019700011F5000F15D488427047894270471CF555
:10198000000F04D5BCF5000FF7D5814270474FF02A
:10199000807C1CEB400F38BF1CEB410F01D2814211
:1019A000704710B500F0BDF8922449004FF0805008
:1019B0004FF00051FFF78CBF50EA010C00F113808B
:1019C0001CF5000F58BFBCF5000F01D488427047CA
:1019D00007D710F5000F58BF11F5000F15D4884236
:1019E0007047894270471CF5000F04D5BCF5000F05
:1019F000F7D5814270474FF0807C1CEB400F38BF19
:101A00001CEB410F01D28142704710B500F089F8FC
:101A1000922449004FF000504FF08051FFF758BF1B
:101A20004FF47F0C1CEAD0121EBF1CEAD11392EABD
:101A30000C0F93EA0C0F00F0478090EA010F48BFAB
:101A400042F480724FF0004C4CEA00204CEA012135
:101A500002EB0302A0FB0113A2F50002002918BF4C
:101A600043F001035B0028BF4FEA330342EB2242FD
:101A70005FEA132C4CEBC2502EBFBCEB436FB2F5A8
:101A80007C0F70474FEA036CBCF1004F08BF20F099
:101A90000100B2F57C0F38BF70470BD582F0FF0212
:101AA00012F5803FC8BF704700F1C040D8BF00F0BA
:101AB0000040704700F5000C5FEA4C0C48BF7047CF
:101AC000B0F1C04000F073B80CEAD11390EA010FF6
:101AD00048BF42F48072624538BF634504D280EA51
:101AE000010000F00040704710B500F01AF800BF88
:101AF0008900013E00F007B800F009B85FEA410C28
:101B00005FEA1C6C08D080EA010000F050B85FEA80
:101B1000400C5FEA1C6CF6D14FF00040A0F580004D
:101B200070470EF1020E2EF0030E5EF8044B2442B5
:101B300004D44FEA4102B2F17F4F11D84FEA40037B
:101B4000B3F17F4F0CD80ED14FEAD07C0CEB4C0C8C
:101B50000CF1020CB2F17F4F08BF4CEBD17C04E0DA
:101B60004FF0080C01E04FEAD17C0CEB4C0324FA57
:101B700003F404F00704B4F1040C06D20EEB840C59
:101B8000BDE810404CF0010C6047DFE80CF007089E
:101B900002024FF00040A0F5800010BD0846420050
:101BA00018BFD2F1807288BF00F0004010BDFF2145
:101BB00041EAD050C00570474FEAD051002988BF94
:101BC000D1F1FF0240F275804FEA002040F0004062
:101BD00070B501F17D01490838BF40080EA2430EDF
:101BE000D25C040C02FB02F304FB03F3C3F1404399
:101BF000A3FB0254ED0D45EA442202FB02F3A0FBD5
:101C000003546D42C4F1404438BF641EA2FB053545
:101C10000023E2FB0453EA0B42EA4342A0FB0232F8
:101C200012F14004E409A2F1210303F07F031F2B0A
:101C300032D904EBC15070BDFEFAF7F3F0ECE9E6DF
:101C4000E4E1DEDCD9D7D4D2D0CECCCAC8C6C4C277
:101C5000C1BFBDBCBAB9B7B6B4B3B2B0AFAEACAB2E
:101C6000AAA9A8A7A6A4A3A2A1A09F9E9E9D9C9B53
:101C70009A999897979695949393929190908F8E26
:101C80008E8D8C8C8B8A8A898988878786868584C5
:101C9000848383828281818004FB04F6B6EB004654
:101CA00003D5E64248BF641CC3E7A64258BF641C84
:101CB000BFE711F0FF0F02D100F00040704710B5F0
:101CC000FFF72FFF7FDBFFBE90EA010F48BF81F0D7
:101CD00000413FF578AD421A04D882F00042A0EBF3
:101CE000020011444FEAD052A2EBD1534FF07F4C87
:101CF0001CEA410F18BF9CEA026F4AD04FF0004C1B
:101D00004CEA00204CEA012121FA03FCB0EB0C0C58
:101D10000FD412F0FE0F36D05FEA4C001DD5001232
:101D200040EBC25038BF70471CF03F0F18BF7047E0
:101D30000BE05FEA1C20A2F1010240EBC25038BF69
:101D400070471CF07F0F18BF7047C3F12003994004
:101D500014BF401E20F0010070474FEA1223800894
:101D600008BF7047B0FA80FCA2EB0C02CCF1280C43
:101D700060FA0CF093EA122F04BF00EBC2507047D8
:101D80004FEAC3707047130A5FEADC1008BF704760
:101D9000F6E79CEA026F04D010EA5C0F08BF00204F
:101DA000704710B5FFF7BDFE40DFF63E81F0004002
:101DB00070470000D41D0008000000201000000043
:101DC00050010008E41D0008100000207806000003
:101DD0007001000800A24A04CDCC4C3F0100000075
:041DE0000000803F40
:04000005080001B539
:00000001FF
